:020000040000fa
:080000000002040000000000f2
:020000040000fa
:04000800ce03000023
:020000040000fa
:04000c00ac03000041
:020000040000fa
:04001000be0300002b
:020000040000fa
:04001400b403000031
:020000040000fa
:04001800c60300001b
:020000040000fa
:04001c00ce0300000f
:020000040000fa
:04002000ce0300000b
:020000040000fa
:04002400ce03000007
:020000040000fa
:04002800ce03000003
:020000040000fa
:04002c00ce030000ff
:020000040000fa
:04003000ce030000fb
:020000040000fa
:04003400d0020000f6
:020000040000fa
:04003800ce030000f3
:020000040000fa
:04003c00ce030000ef
:020000040000fa
:04004000ce030000eb
:020000040000fa
:04004400ce030000e7
:020000040000fa
:04004800ce030000e3
:020000040000fa
:04004c00ce030000df
:020000040000fa
:04005000ce030000db
:020000040000fa
:04005400ce030000d7
:020000040000fa
:04005800ce030000d3
:020000040000fa
:04005c00ce030000cf
:020000040000fa
:04006000ce030000cb
:020000040000fa
:04006400ce030000c7
:020000040000fa
:04006800ce030000c3
:020000040000fa
:04006c00ce030000bf
:020000040000fa
:04007000ce030000bb
:020000040000fa
:04007400ce030000b7
:020000040000fa
:04007800ce030000b3
:020000040000fa
:04007c00ce030000af
:020000040000fa
:04008000ce030000ab
:020000040000fa
:04008400ce030000a7
:020000040000fa
:04008800ce030000a3
:020000040000fa
:04008c00ce0300009f
:020000040000fa
:04009000ce0300009b
:020000040000fa
:04009400ce03000097
:020000040000fa
:04009800ce03000093
:020000040000fa
:04009c00ce0300008f
:020000040000fa
:0400a0000003000059
:020000040000fa
:0400a4005003000005
:020000040000fa
:0400a800ce03000083
:020000040000fa
:0400ac00ce0300007f
:020000040000fa
:0400b000ce0300007b
:020000040000fa
:0400b400ce03000077
:020000040000fa
:0400b800ce03000073
:020000040000fa
:0400bc00ce0300006f
:020000040000fa
:0400c000ce0300006b
:020000040000fa
:0400c400ce03000067
:020000040000fa
:0400c800ce03000063
:020000040000fa
:0400cc00ce0300005f
:020000040000fa
:0400d000ce0300005b
:020000040000fa
:0400d400ce03000057
:020000040000fa
:0400d800ce03000053
:020000040000fa
:0400dc00ce0300004f
:020000040000fa
:0400e000ce0300004b
:020000040000fa
:0400e400ce03000047
:020000040000fa
:0400e800ce03000043
:020000040000fa
:0400ec00ce0300003f
:020000040000fa
:0400f000ce0300003b
:020000040000fa
:0400f400ce03000037
:020000040000fa
:0400f800ce03000033
:020000040000fa
:0400fc00ce0300002f
:020000040000fa
:04010000ce0300002a
:020000040000fa
:04010400ce03000026
:020000040000fa
:04010800ce03000022
:020000040000fa
:04010c00ce0300001e
:020000040000fa
:04011000ce0300001a
:020000040000fa
:04011400ce03000016
:020000040000fa
:04011800ce03000012
:020000040000fa
:04011c00ce0300000e
:020000040000fa
:04012000ce0300000a
:020000040000fa
:04012400ce03000006
:020000040000fa
:04012800ce03000002
:020000040000fa
:04012c00ce030000fe
:020000040000fa
:04013000ce030000fa
:020000040000fa
:04013400ce030000f6
:020000040000fa
:04013800ce030000f2
:020000040000fa
:04013c00ce030000ee
:020000040000fa
:04014000ce030000ea
:020000040000fa
:04014400ce030000e6
:020000040000fa
:04014800ce030000e2
:020000040000fa
:04020800ce03000021
:020000040000fa
:04020c00ce0300001d
:020000040000fa
:04021000ce03000019
:020000040000fa
:04021400ce03000015
:020000040000fa
:04021800ce03000011
:020000040000fa
:04021c00ce0300000d
:020000040000fa
:04022000ce03000009
:020000040000fa
:04022400ce03000005
:020000040000fa
:04022800ce03000001
:020000040000fa
:04022c00ce030000fd
:020000040000fa
:04023000ce030000f9
:020000040000fa
:04023400ce030000f5
:020000040000fa
:04023800ce030000f1
:020000040000fa
:04023c00ce030000ed
:020000040000fa
:04024000ce030000e9
:020000040000fa
:04024400ce030000e5
:020000040000fa
:04024800ce030000e1
:020000040000fa
:04024c00ce030000dd
:020000040000fa
:04025000ce030000d9
:020000040000fa
:04025400ce030000d5
:020000040000fa
:04025800ce030000d1
:020000040000fa
:04025c00ce030000cd
:020000040000fa
:04026000ce030000c9
:020000040000fa
:04026400ce030000c5
:020000040000fa
:04026800ce030000c1
:020000040000fa
:04026c00ce030000bd
:020000040000fa
:04027000ce030000b9
:020000040000fa
:04027400ce030000b5
:020000040000fa
:04027800ce030000b1
:020000040000fa
:04027c00ce030000ad
:020000040000fa
:04028000ce030000a9
:020000040000fa
:04028400ce030000a5
:020000040000fa
:04028800ce030000a1
:020000040000fa
:04028c00ce0300009d
:020000040000fa
:04029000ce03000099
:020000040000fa
:04029400ce03000095
:020000040000fa
:04029800ce03000091
:020000040000fa
:04029c00ce0300008d
:020000040000fa
:0402a000ce03000089
:020000040000fa
:0402a400ce03000085
:020000040000fa
:0402a800ce03000081
:020000040000fa
:0402ac00ce0300007d
:020000040000fa
:0402b000ce03000079
:020000040000fa
:0402b400ce03000075
:020000040000fa
:0402b800ce03000071
:020000040000fa
:0402bc00ce0300006d
:020000040000fa
:0402c000ce03000069
:020000040000fa
:0402c400ce03000065
:020000040000fa
:0402c800ce03000061
:020000040000fa
:0402cc00ce0300005d
:020000040000fa
:0402d000ce03000059
:020000040000fa
:0402d400ce03000055
:020000040000fa
:0402d800ce03000051
:020000040000fa
:0402dc00ce0300004d
:020000040000fa
:0402e000ce03000049
:020000040000fa
:0402e400ce03000045
:020000040000fa
:0402e800ce03000041
:020000040000fa
:0402ec00ce0300003d
:020000040000fa
:0402f000ce03000039
:020000040000fa
:0402f400ce03000035
:020000040000fa
:0402f800ce03000031
:020000040000fa
:0402fc00ce0300002d
:020000040000fa
:04030000ce03000028
:020000040000fa
:04030400ce03000024
:020000040000fa
:04030800ce03000020
:020000040000fa
:04030c00ce0300001c
:020000040000fa
:04031000ce03000018
:020000040000fa
:04031400ce03000014
:020000040000fa
:04031800ce03000010
:020000040000fa
:04031c00ce0300000c
:020000040000fa
:04032000ce03000008
:020000040000fa
:04032400ce03000004
:020000040000fa
:04032800ce03000000
:020000040000fa
:04032c00ce030000fc
:020000040000fa
:04033000ce030000f8
:020000040000fa
:04033400ce030000f4
:020000040000fa
:04033800ce030000f0
:020000040000fa
:04033c00ce030000ec
:020000040000fa
:04034000ce030000e8
:020000040000fa
:04034400ce030000e4
:020000040000fa
:04034800ce030000e0
:020000040000fa
:100400006fd021000e7f22000e0188000000000046
:10041000000020000000e000020032000001200087
:100420002002880014000700ff0007000000e00021
:1004300003003a00e08c2000010020000200370099
:100440000000200001002000810f70000100320038
:1004500014000700000020000000e000020032004d
:1004600000000200000000001e2802000000000042
:100470000040da000000fe004440a900c001200056
:100480000000e0000300320000002000a00188000e
:100490004440a800000006008a1f78008b1f7800e7
:1004a0000000060091018800800478000000eb0045
:1004b0001a003700e284440032a0b4009905ba0063
:1004c000e284440032a0b4009906ba00e2844400f9
:1004d00032a0b4000006eb00476fde00fd07b2005b
:1004e000636ce10003003a00ebff07000000eb0043
:1004f0000a003700606ce10004003a00005deb0088
:100500008b05e900fdff3e00040037006168e10053
:10051000010032000086eb000b00070019c7ba008b
:100520001905ba000e04e00003003a000a00e000da
:10053000e0ff3a0000000600fe07b2009e018800be
:100540008a047800f5ff3700395dba008b05e900b1
:100550000c003200295dba008b05e900080032006a
:100560000c00e00003003a00e284440032a0b40032
:10057000f5ff370019ddba008b05e900faff3a00f4
:100580008904e800e184440032a0b40000000600c1
:10059000000000000000000000000000000000005b
:1005a0003600f800809fbe00829fbe00849fbe0080
:1005b000869fbe003400f80000002000a0018800e3
:1005c0000000fa008460a900e60407000000e000d3
:1005d00003003200fe2102000000000000000000c5
:1005e0000080fa003400f9004f03be004f02be0045
:1005f0004f01be004f00be003600f900004006006b
:100600003600f800809fbe00829fbe00849fbe001f
:10061000869fbe003400f80000002000a001880082
:100620000400fa000000eb001007980087c0a90042
:1006300009003700b011800000407800004f7800ba
:10064000804180008e80e8008001eb00010178008d
:100650008e007800cb0b07009011800061006000d5
:100660000000e000f3ff3a001e0090000000e000f0
:1006700003003200fe210200000000000000000024
:100680000080fa003400f9004f03be004f02be00a4
:100690004f01be004f00be003600f90000400600ca
:1006a0003600f800809fbe00829fbe00849fbe007f
:1006b000869fbe003400f80000002000a0018800e2
:1006c0000400fa000000eb001007980087e0a90082
:1006d0000e003700904180008e80e8000101780014
:1006e0008e007800190c0700e10f500004003a005a
:1006f0001e4078000000fb00a011880003003700b6
:1007000010002000a04188000500370091118000f2
:1007100000202000008060000000e000edff3200bb
:100720001e0090000000e00003003200fe210200e5
:1007300000000000000000000080fa003400f90012
:100740004f03be004f02be004f01be004f00be006f
:100750003600f900004006003600f8008020a900ad
:100760000000eb00071307003600f800d212070064
:100770008040a90010002000021307003600f80096
:100780008060a90020002000fe1207003600f8005b
:100790008080a90030002000fa1207000040da0033
:1007a0000000fe000800fa001007980021079800da
:1007b0003207980000000000111180000010200096
:1007c000008060000000e000fbff3200be009000ef
:1007d000010f78000e0037000000000011118000aa
:1007e00000102000008060000000e000fbff3200ed
:1007f0002e009000104078000000fb0020118800bf
:100800002e0090000000e800200798001e0fe9006d
:100810001e0078000000e000efff3a003e0090006c
:100820000080fa00000006000000050003f0a200ae
:10083000889fbe008a9fbe008c1f7800f3000700cf
:10084000fa0033006450e1004f0032006420e10000
:100850005200320003826c0007003b000905d00003
:100860000306d000820f54000c065d000200390020
:100870000200320089017800030678008582550065
:1008800004003d000003fd008103fd008502ea0035
:100890008b854200840f720002003b006000100054
:1008a000e08018006011b8000005eb007a28e10034
:1008b0000a00390006007800c75ddd00f707b200c6
:1008c000878075002d003700828171000a01780051
:1008d000610560008180d1000080d3008502e900bd
:1008e000f9ff3b00060440008784480002003b00fb
:1008f00060041400e0841c000988a3000700320093
:100900008a81710082817100610164008904d100d3
:100910000884d3008b05e800170037000978a3008e
:1009200013003a000b00e000130034008b05e900cf
:100930000804440089844c000a4474000978a30028
:100940000d003a000b00e000070034008b05e900c1
:100950000804440089844c0001003a000b00200088
:100960000978a300f7ff32000001eb000200370016
:10097000828171000a017800690007000cf0a7006d
:1009800001f0a000b20037006420e10002003a004c
:10099000838f6c00b20033000801be000200be006d
:1009a000ab003700889fbe008a9fbe008c1f780076
:1009b000960007009d00330003866c006450e10040
:1009c0002e0032006420e100330032006150e1006b
:1009d0002f0032006120e100310032008585550092
:1009e000eb07b000090020000804200005003700d4
:1009f0000804440089844c000a00310006034300c7
:100a000087834b000001530081815b00f8ff3300b6
:100a10000203be000800a0000804440089844c00c2
:100a2000f6ff3900c639dd00830173000100320092
:100a3000130020008904d1000884d3000998a30082
:100a4000050032000800a7000300a0008904d100bf
:100a50000884d3008b05e8008904d1000884d30002
:100a60000001eb000281d2002d00070001f0a1007f
:100a70000cf0a70001f0a000750037006420e10031
:100a8000770032000801be000200be00f7ff370009
:100a90006120e100720032006000b800f3ff37000f
:100aa0000000200001f82700f0ff37000001be0021
:100ab000410007000470a70003f0a10003f8a300a1
:100ac00013003a006509b10010003200090035003a
:100ad0006928e1000200350001002800000005003f
:100ae00000004000818048008502e900fcff3a00d8
:100af00000000600f88f4200050035008100d1009b
:100b00000080d3008502e800fcff3a0000000600e8
:100b10008000eb00000005006011b800870037007e
:100b200081002000618055000b003d000b0020007b
:100b300061fe2f000100e1001d0034008281710080
:100b4000610164008904d1000884d3000000e8003a
:100b5000faff3a0071002000610064000300700099
:100b6000020060000900320061044400e0844c008f
:100b70000988a500050032008b05e8006808e1003f
:100b800002003a008904d1000884d300f20f20004b
:100b90000258e10005003d00c75ddd00f907b20025
:100ba0008980750008007800000006000bf8270017
:100bb0008b00780000000500c70ade00f107b200d4
:100bc000f50fb20008003200e1cf4200020032000f
:100bd0000170a00024000500810f700001003200a8
:100be0000408050044000500810f700002003a006f
:100bf000140005008502e9000000400081c04800a3
:100c0000fcff3b000170a000240005000004be00b2
:100c1000e9ff07000003be000405be000200be009d
:100c2000e5ff0700844f7500000006000200be00cb
:100c30006450e100050036006420e1000200360047
:100c40000968a30001003a000800be000160a0008e
:100c50004f0678004f05be004f04be00000006009e
:100c6000f0ff2f00f1ff2700f9ff3700889fbe003b
:100c70008a9fbe008c1f7800e4ff0700ebff330063
:100c800003866c006450e100240032006420e1001f
:100c9000270032006150e100220032006120e100b3
:100ca000210032008b854200eb07b1000134b8000f
:100cb000003ab8000804420089844a00013ab800aa
:100cc0000030b8008880400009014a000400330069
:100cd0000000400081804800020149008b05e900c6
:100ce000c909dd00830170000100320013002000fb
:100cf000c814de004814dd004709de001200b2000f
:100d0000c808de000884700085ff070001f0a1001c
:100d10000cf0a70001f0a000cdff37006120e1003a
:100d2000cfff32000801be000200be00f7ff37000f
:100d30006150e100fcff3a00c9ff3700889fbe0008
:100d40008a9fbe000082700004027100048271005c
:100d5000260032000004be000200be006011b80090
:100d60006b092000950220000182cf000a003900a3
:100d70000541b1000082cf00070039000541b100f4
:100d80000982cf00040039000541b1000882cf007c
:100d9000010039000541b100054252001200320045
:100da0000a003b0082817100610164008100d10072
:100db0000080d3008984d3000884d3008b05e80029
:100dc0000442e800f7ff3a00070037000804440037
:100dd00089844c0000004800818048008b05e900b0
:100de0000442e900f9ff3a004dff07004f05be003d
:100df0004f04be0000000600e68747008e1f780003
:100e0000d0bf9f00e1bf9f000e0037005fba970080
:100e100014407800efb99700934078000201e90090
:100e2000814f5000040032000080fb008180fb00f5
:100e3000010050000600370066875700041fe800d5
:100e4000030fe8000200e000f0ff3a000000eb00b2
:100e50004f0778006f00b1000000060080017800a5
:100e600002003700b15978000201e9000200e000f9
:100e7000fcff3a0000000600800178000200370005
:100e8000815978000201e9000200e000fcff3a000d
:100e900000000600889fbe000004be000500370069
:100ea0000000fb008900780012000700e10f4000fd
:100eb00004003200384078000004e000f8ff3a00f7
:100ec0000000eb004f04be0000000600881f780001
:100ed000c1c62100efff070000047800c1c6210051
:100ee000a000200003000700080078004f047800ed
:100ef00000000600889fbe0001047800b800900042
:100f00008084eb000118a3003a0032001801900021
:100f10000198a30002003a000200e00035003a0008
:100f20000190a0003104980080047800f90fb2000d
:100f30000200e00002003a0028009000000c780057
:100f4000ea8f540005003a000178a30003003a003c
:100f500088007800d0002000e6ff0700180090000d
:100f6000d8009000810f50000b0032000000e80014
:100f7000100498001800780009487800000ce80078
:100f800011c0b30000d0210001487800ea8f54005e
:100f900018003a0005003700880078000940780002
:100fa0001700070080047800120037003800900016
:100fb0000088a3000f00320018019000a8009000e4
:100fc00048009000f7fd070098009000810f500046
:100fd00004003200380090000003b3003004980091
:100fe0008084eb000000eb001004980028009000c3
:100ff000000c7800090078004f04be0000000600d5
:101000000200fa00889fbe00a0ff9f000104780044
:10101000380090000068a30033003a00e20060004e
:1010200005003a000003b300300498001104980052
:101030000080eb002e003700d80490000900e0008b
:1010400006003a0012002000e68057004800900099
:10105000d4fd07001904980023003700a800900071
:101060000100e00008003a0031d02100210498007e
:10107000010c780021002000510498001104980010
:101080000030a0003004980018019000a8009000e3
:1010900048009000c3fd0700280090008080eb000e
:1010a00011049800aff8970001487800000ce800a0
:1010b0002ff89700ea4f50000b003a0038009000dc
:1010c0000088a3000800320018019000a8009000da
:1010d00048009000b3fd07000000eb0010049800ea
:1010e000a8009000010c7800aff897000100fb0009
:0c10f0004f04be000080fa000000060063
:020000040000fa
:1010fc001111000022220000333300004444000090
:10110c00555500006666000077770000888800005f
:10111c0099990000aaaa0000bbbb0000cccc00002f
:10112c00dddd0000eeee0000cecd0000acab00002b
:020000040000fa
:10113c0043680000656300006b0000004865000018
:10114c006c6c00006f200000576f0000726c000088
:10115c00642100002121000000000000494400002f
:08116c004c45000000000000ea
:020000040000fa
:10117400a5a50000a5a50000a5a50000a5a5000043
:10118400a5a50000a5a50000a5a50000a5a5000033
:08119400a5a50000a5a50000bf
:020000040000fa
:10119c0038080000001400000000000000080000e7
:1011ac000200000000000000020800000200000025
:1011bc000000000004080000020000000200000013
:1011cc00ef00000006080000020000000000000014
:1011dc00381c00002800000000000000ba1c0000b1
:1011ec000a00000000000000c41c00000a000000ff
:1011fc0000000000080800000200000000000000d1
:10120c000a0800000200000000000000ce1c0000d4
:10121c000a00000000000000d81c00000a000000ba
:10122c00000000000c08000002000000000000009c
:10123c000e08000002000000000000001008000072
:10124c000200000000000000120800000200000074
:10125c000000000014080000020000000000000064
:10126c001608000002000000000000001808000032
:10127c0002000000000000001a080000020000003c
:10128c00000000001c08000002000000000000002c
:10129c001e080000020000000000000020080000f2
:1012ac000200000000000000a61c0000140000005a
:1012bc0000000000e21c00000a000000000000001a
:1012cc00ec1c00000a0000000000000022080000d6
:1012dc0002000000000000002408000002000000d2
:1012ec0000000000f61c00000a00000000000000d6
:1012fc002608000002000000000000002808000082
:10130c0002000000000000002a080000020000009b
:10131c00000000002c08000002000000000000008b
:10132c002e08000002000000000000003008000041
:10133c000200000000000000320800000200000063
:10134c000000000034080000020000000000000053
:10135c00360800000200000002000000ffff000041
:10136c00861c00002000000000000000601c000033
:10137c002600000002000000011d000000011d00fd
:10138c000900000000020000031d000000031d0006
:10139c000e02010000000000000000000000000030
:1013ac000602020000000000601c0000001d00008e
:0c13bc000600000000000000000000001f
:020000040000fa
:1013c8001400fa0040079800520798006307980035
:1013d80071079800040f9800150f9800100020005e
:1013e800000f7800ce009000110798000000eb0075
:1013f800200798000e0890000000e0000500320069
:101408001e00900090109000001090000e099000af
:101418000089be001e00900040619000624798005d
:101428001e00900021c0b300416098007e0090002b
:10143800e20f500017003200e20f500005003e0096
:101448000000e0002e003200e10f500006003200dc
:101458002c003700e30f500017003200e40f500053
:101468001b003200270037001e009000001190007a
:10147800901190005e009000ee0090000000710056
:10148800818071001e0190000011980011119800d0
:101498001c0037001e009000901090000010900073
:1014a80061004000e08048001e0190000011980093
:1014b80011119800130037001e0090005e01900083
:1014c800ee01900002109800131098000d003700ec
:1014d8006e409000e24f5000060032001e0090005f
:1014e8005e019000ee019000021098001310980021
:1014f800040037000000eb00000f780001003700ff
:10150800000000006e409000e14f50002d003a00ae
:10151800004180000000e00016003a001e00900024
:101528000080e800db0b07001e009000b008900068
:1015380080408000808f5000030036001e0090001d
:1015480030089000804088001e0090000081e8006c
:101558001e009000300890006a00b90080007800f2
:1015680080c321000080400082007800750c0700cd
:10157800050037001e0090006c00400080007800d5
:10158800e0cc21006f0c07001e009000b00890000e
:101598003040800030089000808f500009003600ed
:1015a8001e0890000000e000040032001e089000b1
:1015b8001100200001087800020037001000200008
:1015c800b04088001e0078000080fa000000060085
:020000040000fa
:1015d8001000fa0030079800420798005307980057
:1015e800610798007407980010002000000f780029
:1015f800be00900011079800670e07007e0090005b
:101608000000e000050032001e00900090109000dd
:10161800001090007e0190000089be001e0090001e
:1016280040619000424798001e00900021c0b3001e
:10163800416098006e009000e20f500017003200e1
:10164800e20f500005003e000000e0002e003200ce
:10165800e10f5000060032002c003700e30f500065
:1016680017003200e40f50001b003200270037003b
:101678001e00900000119000901190004e00900004
:10168800de00900000007100818071001e01900052
:1016980000119800111198001c0037001e009000de
:1016a800901090000010900061004000e080480019
:1016b8001e019000001198001111980013003700c6
:1016c8001e0090004e019000de019000021098006c
:1016d800131098000d0037004e409000e24f500064
:1016e800060032001e0090004e019000de019000be
:1016f8000210980013109800040037000000eb0057
:10170800000f780001003700000000004e409000f4
:10171800e14f50001e003a001e0090000080e800d3
:101728005c0b07001e009000b0089000804080000d
:10173800808f5000030036001e0090003008900093
:10174800804088001e0090000081e8001e00900084
:10175800300890006a00b9008000780080c321003a
:101768000080400082007800f60b07001e00900001
:10177800b00890003040800030089000808f500002
:1017880003003600fe2102000000000000000000f7
:10179800e50d07001e0078000080fa000000060032
:020000040000fa
:1017a8001200fa0050079800610798007207980025
:1017b800030f98000000eb00000f7800de00900097
:1017c800110798000100370000000000f20d070023
:1017d8001e009000e00890001e0090007008900025
:1017e800808f5000030039000e089000e20f50006f
:1017f8001b003a000e099000ee0090001e009000b9
:10180800f1040700200798001e00900010089000bf
:101818000000e000090032001e0090007200400045
:10182800700807000000e0000a003200fe210200f4
:101838000000000000000000060037002e009000a5
:101848000000e00003003200fe210200000000005a
:1018580000000000b40d0700100020003d00370014
:101868007e0090000000e00003003a00ae0d070083
:101878000000eb00370037001e0078000000e00091
:1018880004003a0066004700470e070010002000d9
:10189800000f7800a40d0700990e0700be0d070081
:1018a8001e00900020609000e14f400003003a00c5
:1018b8001e0090008040eb00216098001e00900000
:1018c80030609000e14f400003003a001e00900095
:1018d8008040eb0031609800930d0700ee00470050
:1018e80066004700070807000000e00015003a00fe
:1018f8001e0090000a0d07000000e0000d003200f5
:10190800fe0090001e00900068004000bc0d07001b
:101918001e009000c3070700560407000000e000ff
:10192800a9ff3a00fe2102000000000000000000ac
:10193800a6ff37001e009000ba0707004d040700f5
:10194800a2ff37001e009000b607070049040700f1
:0c1958000000eb000080fa000000060018
:020000040000fa
:101964000a00fa000000eb00000f7800004180003c
:101974000000e0005e003a00704080000000e800d3
:10198400100798009e009000714088001e0090008f
:101994000000e0000a003a0041408000210798005e
:1019a4005040800040408800ae00900051408800c4
:1019b400c04080000000e800c0408800fd0c070023
:1019c400e04080009e009000808f50003c00390071
:1019d4000100370000000000404080001000780043
:1019e4000000e00003003a000080eb00e0408800c3
:1019f40033003700404080003000900030009000f9
:101a0400300798003e009000900090004107980035
:101a14009e0090004e009000808f50000300310023
:101a2400ce009000e1408800250037003e00900081
:101a34000080e800980a07003e009000200890000b
:101a44000000e000030032003e0090006c00400003
:101a5400910a07003e009000b0089000804080008a
:101a6400808f5000030036003e0090003008900044
:101a7400804088003e0090000081e8003e00900015
:101a8400300890006a00b9008000780080c321000b
:101a940000804000820078002b0b07003e0090007d
:101aa400b00890003040800030089000808f5000d3
:101ab400c8ff390010002000000f7800c6ff37006f
:101ac40030408000300890006a00b900800078003f
:101ad40080c321000080400010007800e10f500016
:101ae4000600360010002000000f780003003700c5
:101af400a04080000000e800a0408800b0408000c2
:101b04000000e0000200320010002000000f780006
:0c1b14001e0078000080fa0000000600af
:020000040000fa
:101b20001200fa006007980071079800020f9800f1
:101b30000000eb00000f7800ee0090001107980005
:101b40000300370000000000010037000000000023
:101b5000130d07001e009000e00890002107980078
:101b60002e0090000000e000180032001e009000df
:101b7000b000900031079800fe0090001e00900019
:101b8000af0a07001e009000be00900031009800d0
:101b90001e009000100890000000e00008003200d5
:101ba0001e00900072004000900707000000e00057
:101bb00003003200fe2102000000000000000000cf
:101bc000db0c070010002000410037000e089000d9
:101bd0000000e00003003a00d50c07000000eb0015
:101be0003b0037001e0078000000e00004003a00cf
:101bf000680047006e0d070010002000000f7800fd
:101c0000cb0c0700c00d0700e50c07001e0090007c
:101c100020609000e14f400003003a001e00900059
:101c20008040eb00216098001e0090003060900022
:101c3000e14f400003003a001e0090008040eb009e
:101c400031609800ba0c0700f000470068004700b8
:101c50002e0707000000e00015003a001e0090006b
:101c6000660c07000000e0000d0032008e089000b6
:101c70001e00900072004000e30c07001e00900060
:101c8000ea0607007d0307000000e000adff3a0010
:101c9000fe2102000000000000000000acff370041
:101ca0001e009000e106070074030700a8ff37003c
:101cb0001e009000dd060700700307001e00900064
:101cc0004e0c07000000e000a0ff32000000eb0017
:081cd0000080fa00000006008c
:020000040000fa
:101cd8000a00fa0020079800310798004207980088
:101ce800ae0090001107980011028000f0f12f005b
:101cf800008060000050a000100288000000000072
:101d0800000000001e009000600890000000e00045
:101d180016003a004e0090000000e0000c0032006f
:101d28001e00900072004000800078004e00900075
:101d3800fc09070011028000f0f12f00008060000c
:101d48001002880000000000c0ff2f004b00370081
:101d580011028000f0f12f0000806000100288005e
:101d6800000000000000eb00440037001102800072
:101d7800f0f12f00008060001002880000000000d1
:101d880011028000f0f12f00008060000050a000d8
:101d98001002880000000000000000001e009000f3
:101da800600890000000e0002c0032001e00900047
:101db800b00090001e00900000109000808040004d
:101dc8001e009000310098001e009000b0009000a6
:101dd8001e00900010009000808f50000400390011
:101de8001e009000900078001e00900031009800be
:101df8001e009000600890008000e9001e0090001e
:101e0800610898001e009000801090001e0090004d
:101e18003000900001017800800078003e009000ba
:101e28000cfc070010002000000f78001e00900036
:101e3800400090000000e0000a0032001e00900000
:101e480068004000950a07000000e0000500320025
:101e5800b0ff2f00000f7800020037000000eb00f1
:101e6800000f780011028000f0f12f000080600060
:101e780010028800000000001e0078000080fa00b0
:041e88000000060050
:020000040000fa
:101e8c001000fa005007980061079800720798003c
:101e9c000000eb00000f7800de00900011079800a6
:101eac0003003700000000000100370000000000b4
:101ebc00380c07001e009000e008900021079800e5
:101ecc002e0090000000e00016003200ee009000a2
:101edc001e009000d70907002e0090008000e9003a
:101eec001e009000610898001e00900040009000b9
:101efc000000e000080032001e0090006800400066
:101f0c00b70607000000e00003003200fe210200cb
:101f1c000000000000000000020c07001000200070
:101f2c00410037007e0090000000e00003003a0002
:101f3c00fc0b07000000eb003b0037001e00780094
:101f4c000000e00004003a0066004700950c070012
:101f5c0010002000000f7800f20b0700e70c0700c0
:101f6c000c0c07001e00900020609000e14f400018
:101f7c0003003a001e0090008040eb0021609800a6
:101f8c001e00900030609000e14f400003003a00ca
:101f9c001e0090008040eb0031609800e10b0700c0
:101fac00ee00470066004700550607000000e00001
:101fbc0015003a001e0090008d0b07000000e00099
:101fcc000d003200fe0090001e00900072004000d8
:101fdc000a0c07001e00900011060700a40207005f
:101fec000000e000afff3a00fe21020000000000fc
:101ffc0000000000aeff37001e009000080607002e
:10200c009b020700aaff37001e0090000406070081
:10201c00970207001e009000750b07000000e000ff
:10202c00a2ff32000000eb000080fa000000060066
:020000040000fa
:10203c000e00fa0050079800610798000000eb00b2
:10204c00000f7800de0090001107980003003700a5
:10205c00000000000100370000000000cd0b07005d
:10206c001e009000e0089000210798002e009000c0
:10207c000000e000130032002e0090008000e90008
:10208c001e009000610898001e0090004000900017
:10209c000000e000080032001e00900068004000c4
:1020ac004f0607000000e00003003200fe21020092
:1020bc0000000000000000009a0b07001000200038
:1020cc00410037006e0090000000e00003003a0071
:1020dc00940b07000000eb003b0037001e0078005b
:1020ec000000e00004003a00660047002d0c0700d9
:1020fc0010002000000f78008a0b07007f0c0700ef
:10210c00a40b07001e00900020609000e14f4000df
:10211c0003003a001e0090008040eb002160980004
:10212c001e00900030609000e14f400003003a0028
:10213c001e0090008040eb0031609800790b070086
:10214c00ec00470066004700ed0507000000e000ca
:10215c0015003a001e009000250b07000000e0005f
:10216c000d003200ee0090001e0090007200400046
:10217c00a20b07001e009000a90507003c020700f7
:10218c000000e000b2ff3a00fe2102000000000057
:10219c0000000000b1ff37001e009000a0050700f2
:1021ac0033020700adff37001e0090009c050700ae
:1021bc002f0207001e0090000d0b07000000e0002e
:1021cc00a5ff32000000eb000080fa0000000600c2
:020000040000fa
:1021dc000c00fa0040079800510798000000eb0033
:1021ec00000f78005e009000e30f500002003600f4
:1021fc003000200050079800660b07004e0090003e
:10220c000000e00002003a0030408000010037007e
:10221c004e009000100798001e009000b00890002f
:10222c0021079800ae0090005e009000808f500057
:10223c0048003200de0090002e009000808f50008d
:10224c000c003600304080009e009000808f5000c3
:10225c000e00320030408000b00890005e0090000c
:10226c00808f500009003e0010002000000f780005
:10227c0006003700304080009e009000808f500098
:10228c0002003a0010002000000f78001e009000a1
:10229c00b0089000310798001e009000de009000fe
:1022ac00310898001e009000600090000000e000d3
:1022bc00040035005e009000e40010001e00900049
:1022cc00610098001e009000500190003e009000ac
:1022dc006a00b9008000780080c3210000804000b3
:1022ec00800f510015003a001e0090000080e8009d
:1022fc00670807001e009000b00890008040800026
:10230c00808f5000030036001e00900030089000b3
:10231c00804088001e0090000081e8001e009000a4
:10232c00300890006a00b9008000780080c321005a
:10233c000080400082007800010907001e00780030
:10234c000000e00003003200fe210200000000004b
:10235c0000000000f30a07000080fa0000000600ed
:020000040000fa
:10236c001400fa00200798003107980042079800e3
:10237c00530798006407980075079800060f98009b
:10238c00170f98004e00900000004000800078006d
:10239c001e0890004008900001017800510a2000ae
:1023ac00b2fa07001e089000c008900011079800b0
:1023bc001e089000c00890004e019000f0ff27000e
:1023cc000000410000004000808040001e0890008a
:1023dc00710898000000eb00000f78000d0037002a
:1023ec003e0090001e004000904078001e089000b7
:1023fc001e0040007a004000014878003e0090002a
:10240c001e004000104078000004e000050032007f
:10241c001e0fe8001e007800e30f5000f0ff36009e
:10242c0001003700000000001e0890008040eb0007
:10243c00515898007e009000e30f500002003600c7
:10244c0030002000700798001e089000fe009000dd
:10245c00310898001e0890000080e800850b0700ea
:10246c001e0890006c004000820b07001e089000b4
:10247c009e089000410098007e009000e40010003f
:10248c001e089000610098001e0890009e089000a5
:10249c00110898001e0990006000b8000011980007
:1024ac00111198001e0890008040eb0041609800cc
:1024bc006e019000ae0090001e0090005f020700bd
:1024cc00800078001e089000010878000e0890002b
:1024dc000000e000030032000e0890009e089000ff
:0c24ec00010878000080fa0000000600e3
:020000040000fa
:1024f8000e00fa001007980021079800320798008c
:10250800430798005407980065079800a20a070037
:102518003040800040609000e24f500022003200be
:102528003440800004119000941190001e00900027
:10253800ae0090000080ea008180ea008202780004
:10254800030178008001780001007800838262002e
:10255800000061008000eb00c000dd0000002000ea
:102568000001be006128b80000017100818171007e
:1025780002129800131298003040800011c0b30076
:10258800416098006e0090000000e00006003200f4
:10259800110020006e009000e5060700fe210200f1
:1025a80000000000000000005f0a07007a0a070028
:1025b8005e0090000000e00005003200304080001e
:1025c80090109000001090005e0190000089be00fd
:1025d8003040800040609000e24f5000030032001d
:1025e8000000eb00000f780018003700344080002e
:1025f80004119000941190003e009000ce009000cd
:102608000080ea008180ea008202780003017800f5
:102618008001780001007800838262000000610078
:102628008000eb00c000dd00000020000001be00bb
:102638006128b800000171008181710002129800c0
:102648001312980010002000000f7800304080001e
:102658008040eb0041609800330a07001e007800b4
:082668000080fa0000000600ea
:020000040000fa
:102670000800fa0010079800210798003207980018
:102680000041eb00110020003e009000ca07070047
:10269000804188000041eb00110020003e009000c6
:1026a000c5070700904188003062a9003002a900e8
:1026b0008111800090ff2f00008060008011880051
:1026c0003082a90030a2a90030c2a90030e2a900de
:1026d00081118000f0cf2f00008060008011880001
:1026e0003182a90031a2a90031e2a8001e009000a9
:1026f000ae00900008f90700020020000318240033
:102700005af907000001be000040220041b7240032
:10271000a4f807000200200003f0230043f807009c
:10272000e2f8070000007800c011880091118000d5
:10273000f0f32f0000806000901188003342a80061
:1027400033c2a90033a2a90033e2a900110280001c
:10275000f0f12f00008060000050a00010028800ff
:10276000000000000000000087c0a90087e0a90069
:1027700091058000f08f2f00008060000080a00095
:102780009005880091058000f0ff2800008060001f
:1027900000c0a0009005880097e0a80097c0a8009e
:1027a00002003700b0118000004f780090118000c7
:1027b000610060000000e000faff3a001000200015
:1027c000a04188000000eb000080fa000000060035
:020000040000fa
:1027d0000400fa009a0a07006141800001005000dd
:1027e0007041880049003700504180000000e80037
:1027f00050418800704180000000e900704188006d
:10280000504180000000e00039003a001141800092
:10281000010f780020418000104188009e00780060
:1028200021418800330037001041800030009000c3
:1028300030009000100798001e009000900090005b
:1028400050418000808f50002f003e001102800018
:10285000f0f12f00008060000050a00010028800fe
:1028600000000000000000001e0090000080e80052
:102870000a0707001e009000200890000000e000fa
:10288000030032001e0090006c00400003070700a8
:1028900011028000f0f12f0000806000100288001b
:1028a000000000001e009000b00890004041800031
:1028b000808f5000030036001e009000300890000a
:1028c000404188001e0090000081e8001e0090003a
:1028d000300890006a00b9008000780060ca2100ca
:1028e0000080400082007800980707000100370050
:1028f0000000000010418000100078000000e0009f
:10290000c9ff3a000100370000000000704180005c
:102910000000e000b4ff3a005041800060418800b0
:082920000080fa00000006002f
:020000040000fa
:102928000a00fa002007980031079800420798002b
:10293800ae0090001107980011028000f0f12f00fe
:10294800008060000050a000100288000000000015
:10295800000000001e009000f10807000000e000e1
:10296800160032004e0090000000e0000c0032001b
:102978001e00900068004000800078004e00900023
:10298800e806070011028000f0f12f0000806000c7
:102998001002880000000000c0ff2f00330037003d
:1029a80011028000f0f12f00008060001002880002
:1029b800000000000000eb002c003700110280002e
:1029c800f0f12f0000806000100288000000000075
:1029d80011028000f0f12f00008060000050a0007c
:1029e8001002880000000000000000001e00900097
:1029f800e00890001e00900070089000808f500042
:102a0800120031000001eb00be0090001e00900093
:102a18006d00070010002000000f78001e009000d5
:102a2800100890000000e0000a0032001e0090002c
:102a380072004000990707000000e000050032001e
:102a4800b0ff2f00000f7800020037000000eb00f5
:102a5800000f780011028000f0f12f000080600064
:102a680010028800000000001e0078000080fa00b4
:042a78000000060054
:020000040000fa
:102a7c000600fa000000eb00000f78000000eb00ed
:102a8c001007980043090700004180000000e9008e
:102a9c0000418800004180000000e00045003a0041
:102aac00604080000000e00042003200210037004e
:102abc00a0e6800030009000000f78009e007800a7
:102acc006c804000720607001e80e800700607004c
:102adc001e007800b008900080408000808f50006d
:102aec00030036001e0078003008900080408800fb
:102afc001e81e8001e007800300890006a00b900c2
:102b0c008000780080c321000080400082007800a3
:102b1c000b0707001e007800b008900030408000c2
:102b2c0030089000808f5000020039001000200007
:102b3c00b040880070e680000000e000dcff3a0046
:102b4c001e0078000000e00001003200970807002a
:102b5c00a1408000210798002e0090000000e000aa
:102b6c000c0032007cfb07000000e0000200320089
:102b7c0010002000b04088002e0090000000e900fa
:102b8c00200798002e0090000000e000f5ff3a00ae
:102b9c001428ef00b04080000000e0000500320077
:102bac001000200010079800fe2102000000000019
:102bbc0000000000db0807001e0090000080fa00f7
:042bcc0000000600ff
:020000040000fa
:102bd0000a00fa0020079800310798004207980081
:102be0000000eb00100798002e009000e008900015
:102bf000010f78002e009000001090000000e0000f
:102c0000400032004e0090000000e00019003a0041
:102c10002e009000801090002e0090002000900068
:102c200001017800be0090008cf807002e00900093
:102c3000a00090002e0090000010900080804000c6
:102c40002e009000210098002e009000a00090001f
:102c50002e00900010009000808f50002900390055
:102c60002e009000900078002e0090002100980027
:102c7000240037002e009000801090002e0090005d
:102c80003000900001017800be00900073f807004a
:102c90002e009000b00090002e00900000109000d8
:102ca0000000ea00808040002e0090003100980073
:102cb0002e009000b00090002e00900010007800d0
:102cc000808f5000080031002e009000900090008e
:102cd0002e009000001090000000ea00808040006c
:102ce0002e009000310098004e009000e20f50003e
:102cf00004003a001e0078000000e00001003200ed
:102d00001e0fe9009e00e8002e0090006108980068
:0c2d10001e0090000080fa000000060089
:020000040000fa
:102d1c000a00fa0020079800310798004207980033
:102d2c00c00120002f050700100798001e0090001e
:102d3c000000e0003c003200304180000000e00068
:102d4c0003003a009e009000314188003e070700c6
:102d5c003e009000e10f50000200360010002000f1
:102d6c00300798001e0090008000eb00510898007e
:102d7c001e009000be009000310898001e009000cc
:102d8c00ce009000410898001e009000ae0090000c
:102d9c00010878001e0090000080e800350907004b
:102dac001e0090006c004000320907001e009000cd
:102dbc009e009000410098001e0090009e00900024
:102dcc00110898003e009000e20010001e009000d8
:102ddc00610098001e009000b008900040418000f7
:102dec00808f5000030036001e00900030089000c9
:102dfc00404188001e0090000081e8001e009000f9
:102e0c00300890006a00b9008000780060ca210088
:102e1c000080400082007800490607001000200066
:102e2c00000f7800020037000080eb00000f7800e4
:0c2e3c001e0078000080fa000000060074
:020000040000fa
:102e48002a00fa00201798003117980042179800b6
:102e5800e4004700e28728000f000900b218780054
:102e6800be109000110798002e1090001e019000cf
:102e7800020878002e1090000080e80020179800c3
:102e88002e1090008000eb00010878002e109000b2
:102e98000080e800201798002e1090008000eb00ba
:102ea800010878002e1090000080e8002017980094
:102eb800ce1090002e109000010878002e1090007f
:102ec8000080e800201798000000eb00000f780051
:102ed8000a0037001e00780000004000000047008c
:102ee800a00090002e109000010878002e1090008d
:102ef8000080e800201798001e0fe8001e007800e8
:102f0800ef0f5000f3ff3600210280002e109000d2
:102f1800010878002e1090000080e8002017980023
:102f280034c0bf008080fb002e109000010878009c
:102f38002e1090000080e800201798002e109000b6
:102f48008000eb00010878002e1090000080e80057
:102f5800201798002e1090000080fa00000006004c
:020000040000fa
:102f68000a00fa003007980041079800be00900058
:102f7800010f78000000eb00100798001e00780091
:102f8800c0609000414798001e00780021c0b3003f
:102f9800416098001e00780090109000001090008a
:102fa80061004000e08048001e0178000011980090
:102fb800111198004e409000e14f50002b003a004c
:102fc800004180000000e00014003a001e80e80084
:102fd800300507001e007800b0089000804080008f
:102fe800808f5000030036001e00780030089000e3
:102ff800804088001e81e8001e007800300890009c
:103008006a00b9008000780080c321000080400079
:1030180082007800cb050700050037009e00780085
:103028006c80400080007800e0cc2100c5050700d6
:103038001e007800b00890003040800030089000f2
:10304800808f5000090036004e0090000000e0001c
:10305800040032004e0090001100200001087800a2
:103068000200370010002000b04088000080fa00fd
:04307800000006004e
:020000040000fa
:10307c000600fa0010079800210798009e009000a7
:10308c00010f7800c30707001e00780010017800bc
:10309c001e007800f00890001e00780000109000d0
:1030ac000088b90000007800800041001e00780004
:1030bc00110098001e0078008000eb006108980059
:1030cc001e007800900078001e0078002100980007
:1030dc001e007800100178001e0078007008900027
:1030ec008000e9001e007800001090000088b900f4
:1030fc0000007800800041001e007800310098002c
:10310c001e00780080c0eb00216098001e00780043
:10311c0080c0eb00316098002e0090000000e000b1
:10312c000d003a001e007800400090000000e00006
:10313c000f0032009e0078006880400028020700d3
:10314c000000e0000a003200fe2102000000000036
:10315c0000000000060037009e00780068804000e8
:10316c00530607009e00780072804000500607004e
:10317c006c070700100020000080fa000000060019
:020000040000fa
:10318c000600fa00004180000000e000030032005d
:10319c0010002000b0408800390037001628ef00de
:1031ac003040800070089000100798001e009000be
:1031bc00740050001007980042012000a18b2800d9
:1031cc001e00900009f707000000e0000400320028
:1031dc0030408000fa00400030408000dc070700df
:1031ec0081408000010f7800010037001e0fe900bc
:1031fc001e0078006a00b9008000780080c32100ae
:10320c0000804000100078000000e000f7ff320062
:10321c001e0078006a00b9008000780080c321008d
:10322c0000804000200798002e00900010009000b5
:10323c00900090002e009000110098002e0090003d
:10324c00900090002e00900064004000808f500091
:10325c0005003a002e0090001000900090009000a5
:10326c002e009000110098002e009000100090008d
:10327c0030009000304088009e007800814088002b
:08328c000080fa0000000600ba
:020000040000fa
:103294000a00fa00200798003107980042079800b6
:1032a400ae009000110798001e0090006008900086
:1032b4000000e000310032001e009000b0009000d9
:1032c4001e00900000109000808040001e009000be
:1032d400310098001e009000b00090001e00900085
:1032e40010009000808f5000040039001e009000f0
:1032f400900078001e009000310098001e0090009d
:10330400600890008000e9001e00900061089800a9
:103314001e009000801090001e009000300090006d
:1033240001017800800078003e009000caf6070092
:103334004e009000100078000000e0000c003a00fd
:103344001e009000400090000000e00008003200e1
:103354001e00900068004000510507000000e000d6
:10336400030032004e009000110020000108780094
:1033740010002000000f7800020037000000eb006e
:10338400000f78001e0078000080fa00000006009c
:020000040000fa
:103394000200fa00000f7800000707006040800078
:1033a4000000e80060408800304080000000e00039
:1033b40007003a009e007800314088006040800099
:1033c400e10f50000d003a00190507000b0037000b
:1033d400904080000000e00008003a003040800087
:1033e400b00890001e00780030089000808f5000d4
:1033f40002003e009e00780031408800d0408000ea
:103404000000e800d04088001e007800b00890005a
:1034140080408000808f5000030036001e0078003a
:1034240030089000804088001e81e8001e0078006b
:10343400300890006a00b9008000780080c3210041
:103444000080400082007800bf040700b706070030
:10345400904080000000e00009003200304080000d
:10346400b00890001e00780030089000808f500053
:1034740003003100fe2102000000000000000000f3
:083484000080fa0000000600c0
:020000040000fa
:10348c000c00fa0040079800510798000000eb0070
:10349c00000f780099070700714080001107980011
:1034ac004e009000900078005e009000008040007c
:1034bc00200798004e009000900078001e009000ad
:1034cc00808f50000c0036004e0090009000780069
:1034dc002e009000808f500012003600ae0090003d
:1034ec001e009000808f50000e003600100020004f
:1034fc00000f78000b0037004e0090009000780011
:10350c002e009000808f500004003e00ae00900012
:10351c001e009000808f500002003600100020002a
:10352c00000f78004e009000ae009000010878006b
:10353c001e0078000000e00005003200ae00900094
:10354c001e009000008050008000eb00f702070086
:10355c0047fd0700300798003e0090000000e00097
:10356c0003003a00fe2102000000000000000000f1
:08357c000080fa0000000600c7
:020000040000fa
:103584001000fa004007980051079800620798005d
:1035940073079800ce009000110798000000eb001c
:1035a400200798001e009000e00890001e00900084
:1035b40070089000808f5000030039007e00900056
:1035c400e20f500022003a001e009000b06090000c
:1035d400614798007e019000de0090001e0090007c
:1035e4007afd07006e409000e14f400010003a0061
:1035f4001e009000100890000000e000110032004e
:103604001e00900072004000f70007000000e00078
:103614000c0032006e0090000000e000090032004f
:103624006e009000110020000108780005003700aa
:103634006e4090000040e800804078001e0090003a
:103644003160980010002000000f7800020037005d
:103654000000eb00000f78001e0078000080fa00e4
:04366400000006005c
:020000040000fa
:103668000400fa00100798004b0607001e0090009f
:103678000000e00002003a003040800001003700fe
:103688001e009000000f78001e80e80081030700ec
:103698001e007800200890000000e00003003200bf
:1036a8009e0078006c8040007a0307001e80e800c6
:1036b8008000780080cd2100220407001e007800d9
:1036c80040609000e14f500003003a001e0078006f
:1036d8008040eb004160980013060700904080008e
:1036e8000000e000030032002b060700b0050700c9
:1036f8000d060700304080009e007800808f500043
:103708000e003a00904080000000e0000400320003
:10371800fe21020000000000000000000700370042
:10372800c1e6800060408000808f500002003a00af
:103738000628ef000100370092fe07000080fa001b
:043748000000060077
:020000040000fa
:10374c001000fa0050079800610798007207980063
:10375c00de009000110798000000eb002007980095
:10376c001e009000e0089000310798003e00900089
:10377c000000e000250032001e009000a0609000c8
:10378c00014f9800ee0090001e009000a903070066
:10379c003e0090008000e9001e0090006108980037
:1037ac000e489000e14f400010003a001e009000bf
:1037bc00400090000000e000110032001e0090005c
:1037cc0068004000860007000000e0000c0032009a
:1037dc007e0090000000e000090032007e009000a6
:1037ec001100200001087800050037000e489000f9
:1037fc000040e800804078001e0090002160980096
:10380c0010002000000f7800020037000000eb00d1
:10381c00000f78001e0078000080fa0000000600ff
:020000040000fa
:10382c000400fa0010079800da0507001e0090004b
:10383c00b0609000014f78000b0037001e00900024
:10384c00100890000000e0000b0032001e009000f9
:10385c0072004000620007000000e000010032002e
:10386c00ac0607001e4fe9001e4078000004e00083
:10387c00f2ff3c0001003700000000001e00900029
:10388c0080c0eb0031609800a6050700c105070059
:10389c001e009000a0609000114798000d003700aa
:1038ac001e009000400090000000e0000d0032006f
:1038bc001e00900068004000490007000000e00076
:1038cc0001003200930607001e4090000040e90002
:1038dc00104798001e4090000004e000f0ff3c00f0
:1038ec0001003700000000001e00900080c0eb00bb
:1038fc00216098008b0507000080fa00000006008c
:020000040000fa
:10390c000a00fa003007980041079800a10507004b
:10391c0071408000110798003e009000100090004c
:10392c009e00900000805000200798004e009000f0
:10393c0010007800e10f400003003a000000eb009b
:10394c00000f7800220037003e00900090007800b5
:10395c00c0408000808f5000080032003e00900074
:10396c00900090001e009000808f500003003e00dd
:10397c0010002000000f7800150037004e0090005a
:10398c00900078002e009000808f50000b003600c5
:10399c004e009000900078002e0090008080500027
:1039ac004e009000010878003e009000fd050700d5
:1039bc000000eb00000f7800050037004e0090006f
:1039cc008000eb000108780010002000000f780048
:1039dc00540507001e0078000080fa000000060065
:020000040000fa
:1039ec000600fa00200798002e009000300090008e
:1039fc0030009000100798001e0090006c004000f2
:103a0c00a3020700004180000000e00016003a000d
:103a1c001e0090000080e8009d0207001e00900030
:103a2c00b008900080408000808f5000030036006a
:103a3c001e00900030089000804088001e0090000e
:103a4c000081e8001e009000300890006a00b90068
:103a5c008000780080c32100008040008200780044
:103a6c0037030700050037001e0090006c00400073
:103a7c0080007800e0cc2100310307001e0090008c
:103a8c00b00890003040800030089000808f5000cb
:103a9c000500360010002000000f780010002000f8
:103aac00b0408800020037000000eb00000f7800e7
:0c3abc001e0078000080fa0000000600e8
:020000040000fa
:103ac8000e00fa005007980061079800de00900089
:103ad800110798000000eb00200798001e009000d6
:103ae800e0089000310798001e009000f008900050
:103af8003e009000808f5000220036001e0090008b
:103b0800b0609000014f98003e0090008000e800ef
:103b18001e009000610898000e489000e14f400098
:103b280010003a001e009000100890000000e0000d
:103b3800110032001e00900072004000a9ff07002b
:103b48000000e0000c0032006e0090000000e00071
:103b5800090032006e009000110020000108780072
:103b6800050037000e4890000040e80080407800cb
:103b78001e0090003160980010002000000f7800af
:103b8800020037000000eb00000f78001e007800ec
:083b98000080fa0000000600a5
:020000040000fa
:103ba0000800fa002007980031079800fc0407007d
:103bb000304080009010900000109000e00f500006
:103bc000e08f58000c003a003040800011c0b30074
:103bd000416098003e0090000000e00006003200c6
:103be000110020003e00900053010700fe2102005a
:103bf0000000000000000000cd040700e8040700fa
:103c0000304080000011900090119000028fbe00a3
:103c10001e00be00e00f5000e08f58000f00320081
:103c20002e0090000000e0000500320032408000cd
:103c30006000b800001198001111980007003700cb
:103c4000324080000082eb008082eb003e004200a8
:103c5000ae804a0000119800111198003040800099
:103c60008040eb0041609800b10407001e00be00d8
:083c70000080fa0000000600cc
:020000040000fa
:103c78000200fa0089010700d3fa0700060037009e
:103c8800404180000000e0002c00320040418000ec
:103c98000000e90040418800404180006a00b90006
:103ca8008000780060ca2100008040001000780081
:103cb8000000e000f2ff3200404180006a00b900d5
:103cc8008000780060ca2100008f40001e00780044
:103cd80010009000900090001e00780011009800dd
:103ce8001e007800900090001e01780064004100da
:103cf800808f500005003a001e00780010009000e8
:103d0800900090001e007800110098001e007800b6
:103d18001000900030009000304188003041800051
:103d28001001780030418000c008900030418000c8
:103d38000200010000000000010037000000000040
:083d48000080fa0000000600f3
:020000040000fa
:103d50001000fa00200798003107980042079800e9
:103d600053079800640798007507980060022000c8
:103d70001f010700000f78001e0078000000e0001f
:103d80000e0032004e0090000000400018010700b5
:103d9000800078001e007800410898001e0078001e
:103da000400890000000e00004003a001e00780087
:103db000600507000000eb00000f78001e0078008f
:103dc0000000e000120032004e0090008000eb0086
:103dd0000001eb00821f78009e0378007e039000b4
:103de000ee0290005e0290000001be00be00900056
:103df0002e0090005df907008f87e9001e00780013
:103e000064fd070010002000100798000200370032
:103e10000080eb00100798001e0090000080fa0060
:043e20000000060098
:020000040000fa
:103e24000800fa00300798000000eb00000f78004b
:103e3400be009000110798000000eb0020079800d6
:103e44001e009000350307000000e0002600320049
:103e5400004180000000e0001e003a001e009000b7
:103e6400b00890003040800030089000808f5000ef
:103e74000200390010002000000f78001e0090009e
:103e84000080e800840107001e009000b008900044
:103e940080408000808f5000030036001e00900098
:103ea40030089000804088001e0090000081e800e7
:103eb4001e009000300890006a00b900800078006d
:103ec40080c3210000804000820078001e020700a9
:103ed400050037001e0090006c0040008000780050
:103ee400e0cc2100180207001e0078000080fa00d0
:043ef40000000600c4
:020000040000fa
:103ef8000800fa0020079800310798003e0090005b
:103f080090007800110798001e009000e10f400013
:103f180004003a002e009000c0009000010f7800c5
:103f28000d0037002e00900064004000000f78005c
:103f3800030037001e00780090009000010f780001
:103f48001e00780010009000900078001e0090007d
:103f5800808f5000f7ff36001e0078009000900018
:103f68003e009000110098003e0090001000900064
:103f7800be009000210098003e0090009e0078004e
:103f8800210098001e007800be00900011009800e3
:103f98003e009000ae009000410098002e00900076
:103fa800100078008000e8002e00900001087800da
:083fb8000080fa000000060081
:020000040000fa
:103fc0000400fa00100798009e009000010f78008e
:103fd0001e0078000000e000260032003040800023
:103fe0009e007800808f500022003200ec03070012
:103ff0001e007800ca0207000000e0001c0032002a
:104000001e80e800250107001e007800b00890001f
:1040100080408000808f5000030036001e00780032
:1040200030089000804088001e81e8001e00780063
:10403000300890006a00b9008000780080c3210039
:104040000080400082007800c00107001e00780058
:10405000b00890003040800030089000808f500001
:1040600003003900fe2102000000000000000000f3
:0c407000af0307000080fa00000006000b
:020000040000fa
:10407c000000fa00c422ef00cc22ef00d422ef00a3
:10408c00f079200000168800f0ff2b004016880005
:10409c00f03f2000801688006820ef006a20ef00b7
:1040ac00c622ef00ce22ef00d622ef00c020200067
:1040bc0060198800113a8000f00b2000008160002c
:1040cc0060042000710520002374200080497800d2
:1040dc0081497800824978002135800000fe2f004c
:1040ec0000806000f000b30020358800713680003d
:1040fc0000fe2f00008060003000b3007036880096
:10410c00103a8000000178000260a00060042000da
:10411c0071052000237420008049780081497800c3
:0c412c00824978000080fa0000000600c4
:020000040000fa
:104138000800fa00200798003107980071408000b5
:10414800010f7800304080000080e800d1000700af
:104158002e009000e10f400009003a003e00900058
:104168000000e00006003200304080000080e800d7
:104178008000780080cd2100720107001800370008
:104188002e0090001e00400010079800304080006c
:104198009e009000110098001e0090009e0f500095
:1041a80005003100304080008080e80050408000e9
:1041b8004fff07000a003700304080008080e80089
:1041c800404080004aff0700e04080009e009000c9
:1041d800808f5000020031009e009000e14088006e
:0841e8000080fa00000006004f
:020000040000fa
:1041f0000400fa00100798000000eb00000f7800a0
:104200001e00900061006000004078000004e000a3
:10421000050032009e009000e0ff2f00008060004b
:104220000080e80010079800370407001040800065
:104230000000e00004003a00a1832000e0ff2f000e
:104240000080600010408800014080001e00900047
:1042500080804000d03f2100808f50000d003e0044
:10426000014080001e0090008080400000408000df
:10427000808f500007003600114080000040800011
:10428000008f4000014080001e0090000080400030
:1042900000408800f9f907001e0078000080fa004d
:0442a0000000060014
:020000040000fa
:1042a4000200fa002500370011028000f0f12f000f
:1042b400008060000050a000100288000000000090
:1042c40000000000e0e7800030009000000f78005c
:1042d4009e0078006c8040006f000700110280008f
:1042e400f0f12f0000806000100288000000000040
:1042f4001e80e800680007001e007800b0089000e7
:1043040040418000808f5000030036001e0078007a
:1043140030089000404188001e81e8001e007800ab
:10432400300890006a00b9008000780060ca21005b
:10433400008040008200780003010700b0e780009d
:104344000000e000d8ff3a000080fa0000000600f8
:020000040000fa
:104354000600fa0010079800210798002e0090002c
:104364008000780001f0a0001e0090000108780091
:104374001e00900030009000000f78001e00900096
:10438400450007001e80e800430007001e00780077
:10439400b008900080408000808f500003003600f9
:1043a4001e00780030089000804088001e81e800dc
:1043b4001e007800300890006a00b9008000780080
:1043c40080c321000080400082007800de000700e6
:1043d4001e007800b0089000304080003008900043
:1043e400808f50000200360010002000b04088008a
:0843f4000080fa000000060041
:020000040000fa
:1043fc004200f800801f78000002200010028800a4
:10440c00811f7800829fbe00849fbe00869fbe00e5
:10441c00889fbe008a9fbe008c9fbe008e1f7800b6
:10442c003600f8003200f8004400f8003400f800c0
:10443c0020408000801f7800304080000f087800fa
:10444c00c618020000000000304080009007780081
:10445c004f007800204088003400f9004400f90037
:10446c003200f9003600f9004f0778004f06be0005
:10447c004f05be004f04be004f03be004f02be00ee
:10448c004f01be004f00be004200f90000000600c4
:020000040000fa
:10449c000400fa00100798001e00900040009000e5
:1044ac00000f78001e009000100090009e009000fd
:1044bc00a1009000210098001e00900020009000a8
:1044cc009e00900091009000110098001e00780052
:1044dc00900090001e009000808f500004003a0065
:1044ec001e009000a00090001e00780011009800a3
:1044fc001e0090008000eb00410098001e00780028
:10450c00100078008000e9001e0078000108780097
:10451c001e007800100078000080fa0000000600f1
:020000040000fa
:10452c000600fa00100798002107980051418000fe
:10453c001e009000008f4000304180000080e80099
:10454c00d3ff0700304180009e00780011009800d6
:10455c00504180009e007800808f50000500310093
:10456c00304180008080e800204180005ffe070021
:10457c0004003700304180008080e800104180004a
:10458c005afe07002e0090000000e00005003200eb
:10459c00304180006c004000800078002e009000bc
:0c45ac0052fe07000080fa00000006002c
:020000040000fa
:1045b8000c00fa003007980041079800224f980035
:1045c8004e0090000000e00003003a000000eb00fd
:1045d800000f780005003700be0090004e009000e4
:1045e8000088b90000007800000f78004102200020
:1045f8001e804000fcfe0700100798001e00900077
:104608000000e000090032001e0090004002b000e7
:10461800200798001e029000ae4990002e019000dd
:10462800ce0090003e009000b80007001e009000e9
:084638000080fa0000000600fa
:020000040000fa
:104640000400fa00000f7800110798001e0078009f
:10465000001090000000e000190032001e007800f9
:10466000b00090001e007800001090008080400094
:104670001e007800310098001e007800b000900005
:104680001e00780010009000808f50000400390058
:104690001e007800900078001e007800310098001d
:1046a0001e007800801090001e00780030009000fe
:1046b00001017800800078001e009000e7f10700fb
:0846c0000080fa000000060072
:020000040000fa
:1046c8000800fa00100798002107980032079800a0
:1046d8009e009000010f78001e007800e00890000e
:1046e8001e00780070089000808f50001200310082
:1046f8000001eb00ae0090001e00780032f90700c0
:104708003e0090000000e0000b003a001e00780018
:10471800100890000000e000070032009e007800ba
:10472800728040005d0007000000e00002003200d7
:1047380010002000010037003e0090000080fa00c1
:044748000000060067
:020000040000fa
:10474c000600fa0010079800210798001e00900040
:10475c0090009000010f78002e0090009e007800d1
:10476c00110098001e007800a00090002e00900010
:10477c00210098001e00780020009000ae009000f0
:10478c00110098001e007800ae00900021009800e7
:10479c002e0090009e009000410098001e0090009a
:1047ac00100078008000e8001e00900001087800de
:0847bc000080fa000000060075
:020000040000fa
:1047c4000c00fa004007980051079800ce009000b2
:1047d400110798000000eb00200798001e009000cd
:1047e400600890000000e0000c0032001e00900001
:1047f400b000900031079800de0090001e00900089
:104804008eff07001e009000be009000310098004b
:1048140010002000000f7800020037000000eb00b9
:10482400000f78001e0078000080fa0000000600e7
:020000040000fa
:104834000200fa000000eb00000f780007003700c8
:104844001e0078006a00b9008000780080c321004f
:1048540000804000980007001e0fe8001e0078004a
:10486400e30f5000f6ff3600a0cb210092000700b2
:1048740040cc210090000700e0cc21008e0007000e
:1048840080cd21008c000700a0cb2100404088008f
:1048940040cc2100504088000080fa00000006004f
:020000040000fa
:1048a4000600fa00200798002e00900030009000c7
:1048b40030009000100798001e0090006c0040002b
:1048c400f5fe07001e0090006c0040008000780098
:1048d40060cf21009cff07001e009000b0089000ec
:1048e4003041800030089000808f50000300390070
:1048f40010002000000f7800020037000000eb00d9
:10490400000f78001e0078000080fa000000060006
:020000040000fa
:104914000a00fa00000f7800110798002207980097
:1049240063479800440798001e0090000000e000d0
:1049340004003a00ce0090004e0090000108780078
:1049440003003700ae0090004e009000010878008c
:104954004e0090009e007800710898004e00900070
:104964009e00900001109800110020004e0090005d
:0c497400c1f907000080fa0000000600f6
:020000040000fa
:104980000200fa00e58120000002eb008001eb004c
:1049900032072000418b280080892200ecfc0700b0
:1049a000000f78001e007800e10f50000d003a0063
:1049b00011028000f0f12f00008060000050a00084
:1049c0001002880000000000000000000080eb00e2
:1049d000e040880010002000904088000e28ef0082
:0c49e000680007000080fa0000000600dc
:020000040000fa
:1049ec000600fa00200798002e0090000000e0005e
:1049fc0002003a0030408000010037002e00900089
:104a0c0010079800630107001e00900040609000a2
:104a1c00e24f500006003a001e0090008040eb0070
:104a2c004160980010002000000f78000200370051
:104a3c000000eb00000f78003a0107001e00780020
:084a4c000080fa0000000600e2
:020000040000fa
:104a54000200fa000000eb00000f780007003700a6
:104a64001e0078006a00b9008000780060ca210046
:104a740000804000100007001e0fe8001e007800b0
:104a8400e10f5000f6ff360020ce21000a00070097
:104a9400c0ce21000800070060cf210006000700f7
:104aa40020ce210010418800c0ce21002041880082
:084ab4000080fa00000006007a
:020000040000fa
:104abc000200fa00000f78009e007800648040002d
:104acc00800078001e007800110098001e0078000d
:104adc008080eb00210098009e00780064804000ec
:104aec00800078001e007800310098009e0078004d
:104afc0064804000800078001e007800410098001f
:104b0c001e0078008000eb00010878000080fa009d
:044b1c00000006008f
:020000040000fa
:104b20000600fa00200798000000eb00000f780054
:104b3000ae009000110798001e009000d000900079
:104b400080cd2100808f50000b003a001e009000a5
:104b5000a0089000e0cc2100808f500006003200b9
:104b60001e009000200890000000e00002003a00c3
:104b700010002000000f78001e0078000080fa006e
:044b8000000006002b
:020000040000fa
:104b84000000fa003f0007003040800090077800e2
:104b94004f007800204088003400f9004400f900f8
:104ba4003200f9003600f9004f0778004f06be00c6
:104bb4004f05be004f04be004f03be004f02be00af
:104bc4004f01be004f00be004200f9000000060085
:0c4bd400100020000080fa000000060025
:020000040000fa
:104be0000400fa00100798000000eb00000f7800a6
:104bf0001e0090000000e00006003200c201070025
:104c00008000eb001e0090004bfd07009bf70700a3
:104c1000000f78001e0078000000e00003003a005a
:104c2000fe21020000000000000000000080fa00e9
:044c3000000006007a
:020000040000fa
:104c34000600fa00000f7800214798002207980028
:104c4400904180008e80e8008001eb002e019000ee
:104c5400d4f20700e10f5000020032000000eb0024
:104c640006003700a04180000000e000020032008e
:104c74003428ef0087e0a800100020000080fa002c
:044c84000000060026
:020000040000fa
:104c88000400fa00f07c200001002000008fbe0024
:104c98000421ef000021ef001e00780010088800b2
:104ca80021058000f0ff28000080600000c0a000ff
:104cb800200588008460a9009460a8000481a800e9
:104cc80004a1a90005e1a8000080fa000000060080
:020000040000fa
:104cd8000000fa0000102300203a88004827ef005f
:104ce8002200200080072000a10920003374200042
:104cf8008049780081497800824978000001eb00fa
:104d08006004200071052000237420008049780089
:104d180081497800824978000080fa000000060086
:020000040000fa
:104d28000400fa00100798009b0007001e0090007e
:104d3800e00890001e00900070089000808f5000de
:104d480003003a0010002000000f7800020037002e
:104d58000000eb00000f7800730007001e007800c9
:084d68000080fa0000000600c3
:020000040000fa
:104d70000600fa00000f780011079800220798003b
:104d8000304080009e00900001f0a000610098007b
:104d9000304080006c004000800078001e007800e9
:104da0006afe0700110020002e009000e2fc0700c0
:084db0000080fa00000006007b
:020000040000fa
:104db8000200fa0040408000100078000000e00087
:104dc80003003a000080eb00e0408800070037004d
:104dd800404080003000900030009000000f7800c4
:104de8001e00780010009000e04088000080fa0063
:044df80000000600b1
:020000040000fa
:104dfc000400fa0010079800660007001e009000df
:104e0c00600890000000e00003003a001000200051
:104e1c00000f7800020037000000eb00000f780054
:104e2c00400007001e0078000080fa000000060019
:020000040000fa
:104e3c000400fa00100798001e009000e008900093
:104e4c001e00900070089000808f500003003a0004
:104e5c0010002000000f7800020037000000eb006b
:104e6c00000f78001e0078000080fa000000060099
:020000040000fa
:104e7c000600fa0020079800ae009000010f7800a1
:104e8c00440007001e007800f00890001e00780017
:104e9c006008900000805000100798002100070067
:0c4eac001e0090000080fa0000000600cc
:020000040000fa
:104eb8000600fa00000f78001107980022079800f2
:104ec800804180002e0190009e009000edf30700c5
:104ed8000000e0000200320010002000010037004e
:0c4ee8000000eb000080fa000000060053
:020000040000fa
:104ef4000000fa0000000000101180006100600052
:104f04000000e000fcff320010118000620060002d
:104f14000000e000010032002222a90030118000cc
:0c4f2400004078000080fa000000060049
:020000040000fa
:104f30000000fa00204080000000e90020408800c6
:104f4000204080000000e00005003a0011028000cf
:104f5000f0f12f00008060001002880000000000c7
:084f60000080fa0000000600c9
:020000040000fa
:104f68000400fa00100798001e00900060089000e6
:104f78000000e00003003a0010002000000f780055
:104f8800020037000000eb00000f78001e007800d8
:084f98000080fa000000060091
:020000040000fa
:104fa0000000fa0011028000f0f12f000080600084
:104fb0000050a00010028800000000000000000067
:104fc000204080000000e800204088000080fa00b7
:044fd00000000600d7
:020000040000fa
:104fd4000400fa00100798001e0090000000e00092
:104fe40002003a0030408000010037001e009000ab
:104ff400000f78009e0078007a8040000080fa005c
:0450040000000600a2
:020000040000fa
:105008000400fa00000f7800110798003040800073
:105018006c004000800078001e007800b4fb070098
:10502800110020001e00900041fc07000080fa00db
:04503800000006006e
:020000040000fa
:10503c000000fa00c80007008002eb0034002000da
:10504c008001eb00620e2000e1892800e094220030
:10505c003cfb070047fe07000000eb000080fa0055
:04506c00000006003a
:020000040000fa
:105070000000fa0011028000f0f12f0000806000b3
:105080000050a00010028800000000000000000096
:105090001228ef00c30007000080fa00000006009d
:020000040000fa
:1050a0000200fa00000f7800bdff0700c140800039
:1050b0001e00780001087800714080001e00780012
:1050c000110098009aff07000080fa000000060017
:020000040000fa
:1050d0000200fa0030408000e0009000010f7800ec
:1050e0003040800031408000b1089000e480100022
:1050f000610098001e0078000080fa0000000600a1
:020000040000fa
:105100000200fa00004f780000000000111180003a
:1051100000202000008060000000e000fbff3a005b
:105120001e80fb00201188000080fa0000000600ad
:020000040000fa
:105130000200fa00000f78009d000700c0e1800027
:10514000e10f500003003600fe21020000000000c5
:0c5150000000000099000700f7ff370086
:020000040000fa
:10515c000400fa00000f780011079800110280007b
:10516c00f0f12f00008060000050a00010028800b9
:0c517c000000000000000000ffff3700f2
:020000040000fa
:105188000400fa001007980083ff07001e00900033
:10519800e0089000010f780063ff07001e00780008
:0851a8000080fa00000006007f
:020000040000fa
:1051b0000200fa00000f7800c14080001e00780055
:1051c00001087800714080001e00780011009800ee
:0851d0000080fa000000060057
:020000040000fa
:1051d8000000fa0080002000001188002222ef0061
:1051e800001a20004011880021e2a8002342a800ec
:0851f8000080fa00000006002f
:020000040000fa
:105200000400fa00100798001e009000e0089000cb
:10521000010f78001e0078000080fa0000000600f0
:020000040000fa
:105220000400fa00100798009e009000010f78001b
:105230001e0078003f0007000080fa000000060012
:020000040000fa
:105240000200fa0056ff070071408000010f78004d
:1052500037ff07001e0078000080fa0000000600fb
:020000040000fa
:105260000400fa000000eb00000f7800714080009d
:10527000110798001e0090000080fa000000060050
:020000040000fa
:105280000200fa00000f78001e0078008000eb009a
:0c529000410098000080fa0000000600b9
:020000040000fa
:10529c000200fa00000f7800408a280008ef07008f
:0c52ac00401f20004bfe0700fbff3700f6
:020000040000fa
:1052b8000000fa0060c8210080077800e0c92100da
:0c52c800000188000080fa0000000600d1
:020000040000fa
:1052d4000000fa0068fb07003a0007007dfe0700a3
:0c52e400bcff07000080fa00000006007c
:020000040000fa
:1052f0000000fa0000408000e13f210000805000e3
:085300000080fa000000060025
:020000040000fa
:105308000000fa00004180000000e8000041880029
:085318000080fa00000006000d
:020000040000fa
:105320000000fa0010002000b04088000080fa0061
:045330000000060073
:020000040000fa
:105334000200fa00000f78000080fa000000060066
:020000040000fa
:105344000000fa000028ef000080fa0000000600c8
:020000040000fa
:105354000000fa00604080000080fa0000000600af
:020000040000fa
:105364000000fa00daff07000080fa0000000600df
:020000040000fa
:105374000200fa00000f78000080fa000000060026
:020000040000fa
