:020000040000fa
:080000000002040000000000f2
:020000040000fa
:04000800d20300001f
:020000040000fa
:04000c0004030000e9
:020000040000fa
:0400100016030000d3
:020000040000fa
:040014000c030000d9
:020000040000fa
:040018001e030000c3
:020000040000fa
:04001c00d20300000b
:020000040000fa
:04002000d203000007
:020000040000fa
:04002400d203000003
:020000040000fa
:04002800d2030000ff
:020000040000fa
:04002c00d2030000fb
:020000040000fa
:04003000d2030000f7
:020000040000fa
:04003400d4020000f2
:020000040000fa
:04003800d2030000ef
:020000040000fa
:04003c00d2030000eb
:020000040000fa
:04004000d2030000e7
:020000040000fa
:04004400d2030000e3
:020000040000fa
:04004800d2030000df
:020000040000fa
:04004c00d2030000db
:020000040000fa
:04005000d2030000d7
:020000040000fa
:04005400d2030000d3
:020000040000fa
:04005800d2030000cf
:020000040000fa
:04005c00d2030000cb
:020000040000fa
:04006000d2030000c7
:020000040000fa
:04006400d2030000c3
:020000040000fa
:04006800d2030000bf
:020000040000fa
:04006c00d2030000bb
:020000040000fa
:04007000d2030000b7
:020000040000fa
:04007400d2030000b3
:020000040000fa
:04007800d2030000af
:020000040000fa
:04007c00d2030000ab
:020000040000fa
:04008000d2030000a7
:020000040000fa
:04008400d2030000a3
:020000040000fa
:04008800d20300009f
:020000040000fa
:04008c00d20300009b
:020000040000fa
:04009000d203000097
:020000040000fa
:04009400d203000093
:020000040000fa
:04009800d20300008f
:020000040000fa
:04009c00d20300008b
:020000040000fa
:0400a0002603000033
:020000040000fa
:0400a40076030000df
:020000040000fa
:0400a800d20300007f
:020000040000fa
:0400ac00d20300007b
:020000040000fa
:0400b000d203000077
:020000040000fa
:0400b400d203000073
:020000040000fa
:0400b800d20300006f
:020000040000fa
:0400bc00d20300006b
:020000040000fa
:0400c000d203000067
:020000040000fa
:0400c400d203000063
:020000040000fa
:0400c800d20300005f
:020000040000fa
:0400cc00d20300005b
:020000040000fa
:0400d000d203000057
:020000040000fa
:0400d400d203000053
:020000040000fa
:0400d800d20300004f
:020000040000fa
:0400dc00d20300004b
:020000040000fa
:0400e000d203000047
:020000040000fa
:0400e400d203000043
:020000040000fa
:0400e800d20300003f
:020000040000fa
:0400ec00d20300003b
:020000040000fa
:0400f000d203000037
:020000040000fa
:0400f400d203000033
:020000040000fa
:0400f800d20300002f
:020000040000fa
:0400fc00d20300002b
:020000040000fa
:04010000d203000026
:020000040000fa
:04010400d203000022
:020000040000fa
:04010800d20300001e
:020000040000fa
:04010c00d20300001a
:020000040000fa
:04011000d203000016
:020000040000fa
:04011400d203000012
:020000040000fa
:04011800d20300000e
:020000040000fa
:04011c00d20300000a
:020000040000fa
:04012000d203000006
:020000040000fa
:04012400d203000002
:020000040000fa
:04012800d2030000fe
:020000040000fa
:04012c00d2030000fa
:020000040000fa
:04013000d2030000f6
:020000040000fa
:04013400d2030000f2
:020000040000fa
:04013800d2030000ee
:020000040000fa
:04013c00d2030000ea
:020000040000fa
:04014000d2030000e6
:020000040000fa
:04014400d2030000e2
:020000040000fa
:04014800d2030000de
:020000040000fa
:04020800d20300001d
:020000040000fa
:04020c00d203000019
:020000040000fa
:04021000d203000015
:020000040000fa
:04021400d203000011
:020000040000fa
:04021800d20300000d
:020000040000fa
:04021c00d203000009
:020000040000fa
:04022000d203000005
:020000040000fa
:04022400d203000001
:020000040000fa
:04022800d2030000fd
:020000040000fa
:04022c00d2030000f9
:020000040000fa
:04023000d2030000f5
:020000040000fa
:04023400d2030000f1
:020000040000fa
:04023800d2030000ed
:020000040000fa
:04023c00d2030000e9
:020000040000fa
:04024000d2030000e5
:020000040000fa
:04024400d2030000e1
:020000040000fa
:04024800d2030000dd
:020000040000fa
:04024c00d2030000d9
:020000040000fa
:04025000d2030000d5
:020000040000fa
:04025400d2030000d1
:020000040000fa
:04025800d2030000cd
:020000040000fa
:04025c00d2030000c9
:020000040000fa
:04026000d2030000c5
:020000040000fa
:04026400d2030000c1
:020000040000fa
:04026800d2030000bd
:020000040000fa
:04026c00d2030000b9
:020000040000fa
:04027000d2030000b5
:020000040000fa
:04027400d2030000b1
:020000040000fa
:04027800d2030000ad
:020000040000fa
:04027c00d2030000a9
:020000040000fa
:04028000d2030000a5
:020000040000fa
:04028400d2030000a1
:020000040000fa
:04028800d20300009d
:020000040000fa
:04028c00d203000099
:020000040000fa
:04029000d203000095
:020000040000fa
:04029400d203000091
:020000040000fa
:04029800d20300008d
:020000040000fa
:04029c00d203000089
:020000040000fa
:0402a000d203000085
:020000040000fa
:0402a400d203000081
:020000040000fa
:0402a800d20300007d
:020000040000fa
:0402ac00d203000079
:020000040000fa
:0402b000d203000075
:020000040000fa
:0402b400d203000071
:020000040000fa
:0402b800d20300006d
:020000040000fa
:0402bc00d203000069
:020000040000fa
:0402c000d203000065
:020000040000fa
:0402c400d203000061
:020000040000fa
:0402c800d20300005d
:020000040000fa
:0402cc00d203000059
:020000040000fa
:0402d000d203000055
:020000040000fa
:0402d400d203000051
:020000040000fa
:0402d800d20300004d
:020000040000fa
:0402dc00d203000049
:020000040000fa
:0402e000d203000045
:020000040000fa
:0402e400d203000041
:020000040000fa
:0402e800d20300003d
:020000040000fa
:0402ec00d203000039
:020000040000fa
:0402f000d203000035
:020000040000fa
:0402f400d203000031
:020000040000fa
:0402f800d20300002d
:020000040000fa
:0402fc00d203000029
:020000040000fa
:04030000d203000024
:020000040000fa
:04030400d203000020
:020000040000fa
:04030800d20300001c
:020000040000fa
:04030c00d203000018
:020000040000fa
:04031000d203000014
:020000040000fa
:04031400d203000010
:020000040000fa
:04031800d20300000c
:020000040000fa
:04031c00d203000008
:020000040000fa
:04032000d203000004
:020000040000fa
:04032400d203000000
:020000040000fa
:04032800d2030000fc
:020000040000fa
:04032c00d2030000f8
:020000040000fa
:04033000d2030000f4
:020000040000fa
:04033400d2030000f0
:020000040000fa
:04033800d2030000ec
:020000040000fa
:04033c00d2030000e8
:020000040000fa
:04034000d2030000e4
:020000040000fa
:04034400d2030000e0
:020000040000fa
:04034800d2030000dc
:020000040000fa
:100400006f4122000e7f22000e01880000000000d4
:10041000000020000000e000020032000001200087
:100420002002880014000700680107000000e000b7
:1004300003003a00a0542100010020000200370010
:100440000000200001002000810f70000100320038
:1004500014000700000020000000e000020032004d
:100460000000020000000000ac3a020000000000a2
:100470000040da000000fe004440a900600b2000ac
:100480000000e0000300320000002000a00188000e
:100490004440a800000006008a1f78008b1f7800e7
:1004a0000000060091018800800478000000eb0045
:1004b0001a003700e284440032a0b4009905ba0063
:1004c000e284440032a0b4009906ba00e2844400f9
:1004d00032a0b4000006eb00476fde00fd07b2005b
:1004e000636ce10003003a00ebff07000000eb0043
:1004f0000a003700606ce10004003a00005deb0088
:100500008b05e900fdff3e00040037006168e10053
:10051000010032000086eb000b00070019c7ba008b
:100520001905ba000e04e00003003a000a00e000da
:10053000e0ff3a0000000600fe07b2009e018800be
:100540008a047800f5ff3700395dba008b05e900b1
:100550000c003200295dba008b05e900080032006a
:100560000c00e00003003a00e284440032a0b40032
:10057000f5ff370019ddba008b05e900faff3a00f4
:100580008904e800e184440032a0b40000000600c1
:10059000000000000000000000000000000000005b
:1005a00000000000000000003600f800809fbe0040
:1005b000829fbe00849fbe00869fbe003400f8006c
:1005c00000002000a00188000000fa008460a9005b
:1005d0002a0c07000000e00003003200b8320200dd
:1005e00000000000000000000080fa003400f90064
:1005f0004f03be004f02be004f01be004f00be00c1
:100600003600f900004006003600f8008020a900fe
:100610000000eb00081d07003600f800cf1c0700a3
:100620008040a90010002000031d07003600f800dc
:100630008060a90020002000ff1c07003600f800a1
:100640008080a90030002000fb1c07003600f80065
:10065000809fbe00829fbe00849fbe00869fbe001a
:100660003400f80000002000a00188000400fa0017
:100670000000eb001007980087c0a90009003700b0
:10068000b011800000407800004f78009041800059
:100690008e80e8008001eb00010178008e00780078
:1006a000b813070090118000610060000000e000b6
:1006b000f3ff3a001e0090000000e000030032004b
:1006c000b832020000000000000000000080fa00c4
:1006d0003400f9004f03be004f02be004f01be00c0
:1006e0004f00be003600f900004006003600f8005a
:1006f000809fbe00829fbe00849fbe00869fbe007a
:100700003400f80000002000a00188000400fa0076
:100710000000eb001007980087e0a9000e003700ea
:10072000a04180008e80e800010178008e007800f2
:1007300006140700e10f500004003a001e40780044
:100740000000fb00a011880003003700100020000b
:10075000b041880005003700911180000020200082
:10076000008060000000e000edff32001e009000fd
:100770000000e00003003200b83202000000000078
:10078000000000000080fa003400f9004f03be00b2
:100790004f02be004f01be004f00be003600f90000
:1007a000004006000040da000000fe001004b10026
:1007b000070035009001b100040034007000b10062
:1007c000030035009001b10001003c00100005005d
:1007d000000005006900e100040035006d00e10043
:1007e000030034000002b1000100320000000500e7
:1007f000100005001004b100030035009001b100a5
:1008000001003c0010000500000005008000780099
:100810001104b100030035009101b10001003c005a
:100820000050a000000006000a00fa000000e000ee
:100830003b003a00331c8100a34190000304e00018
:1008400037003a00a3208100e18f510003003200fd
:10085000e28f51000e003a0009003700002220000c
:100860000000e00001003a000040da002002e2004f
:100870000b0035002822ef0021e2a8000800370015
:10088000002320000000e00001003a000040da00f0
:100890003002e200020035003822ef0031e2a80009
:1008a000020078001a003700040a2000e18f51008e
:1008b0000b003a00030037000402e90002003a008e
:1008c00003003700040a20002202ab00faff3200c6
:1008d00014118000050037000402e9000200320014
:1008e0003202ab00fcff3200941180006102620012
:1008f00009003200e18f510002003a0034118000fb
:1009000001003700b4118000845878000000e9002d
:100910000000e000e4ff3a0000005100080037004a
:1009200023002000b3bf9f00c0bf9f00d1bf9f0026
:10093000e2bf9f006a805700c00707006fb89700aa
:100940000080fa00000006000800fa001007980076
:100950002107980032079800000000001111800064
:1009600000102000008060000000e000fbff32006b
:10097000be009000010f78000e003700000000005c
:100980001111800000102000008060000000e000d5
:10099000fbff32002e009000104078000000fb00aa
:1009a000201188002e0090000000e8002007980029
:1009b0001e0fe9001e0078000000e000efff3a0083
:1009c0003e0090000080fa000000060000000500d4
:1009d00003f0a200889fbe008a9fbe008c1f780093
:1009e000f3000700fa0033006450e1004f003200ca
:1009f0006420e1005200320003826c0007003b00db
:100a00000905d0000306d000820f54000c065d00db
:100a100002003900020032008901780003067800e4
:100a20008582550004003d000003fd008103fd00a8
:100a30008502ea008b854200840f720002003b00b1
:100a400060001000e08018006011b8000005eb00a5
:100a50007a28e1000a00390006007800c75ddd0051
:100a6000f707b200878075002d0037008281710082
:100a70000a017800610560008180d1000080d30008
:100a80008502e900f9ff3b00060440008784480026
:100a900002003b0060041400e0841c000988a300ed
:100aa000070032008a817100828171006101640057
:100ab0008904d1000884d3008b05e80017003700b3
:100ac0000978a30013003a000b00e0001300340083
:100ad0008b05e9000804440089844c000a44740032
:100ae0000978a3000d003a000b00e0000700340075
:100af0008b05e9000804440089844c0001003a0099
:100b00000b0020000978a300f7ff32000001eb0082
:100b100002003700828171000a0178006900070035
:100b20000cf0a70001f0a000b20037006420e10043
:100b300002003a00838f6c00b20033000801be004f
:100b40000200be00ab003700889fbe008a9fbe0037
:100b50008c1f7800960007009d00330003866c0010
:100b60006450e1002e0032006420e10033003200c6
:100b70006150e1002f0032006120e10031003200bd
:100b800085855500eb07b00009002000080420000f
:100b9000050037000804440089844c000a00310035
:100ba0000603430087834b000001530081815b00f3
:100bb000f8ff33000203be000800a0000804440050
:100bc00089844c00f6ff3900c639dd0083017300cb
:100bd00001003200130020008904d1000884d300f2
:100be0000998a300050032000800a7000300a00038
:100bf0008904d1000884d3008b05e8008904d10062
:100c00000884d3000001eb000281d2002d00070010
:100c100001f0a1000cf0a70001f0a0007500370062
:100c20006420e100770032000801be000200be002f
:100c3000f7ff37006120e100720032006000b80069
:100c4000f3ff37000000200001f82700f0ff370015
:100c50000001be00410007000470a70003f0a100de
:100c600003f8a30013003a006509b1001000320038
:100c7000090035006928e100020035000100280064
:100c80000000050000004000818048008502e90066
:100c9000fcff3a0000000600f88f42000500350016
:100ca0008100d1000080d3008502e800fcff3a00fb
:100cb000000006008000eb00000005006011b80095
:100cc0008700370081002000618055000b003d0047
:100cd0000b00200061fe2f000100e1001d00340028
:100ce00082817100610164008904d1000884d3000d
:100cf0000000e800faff3a00710020006100640083
:100d0000030070000200600009003200610444002a
:100d1000e0844c000988a500050032008b05e8003e
:100d20006808e10002003a008904d1000884d30079
:100d3000f20f20000258e10005003d00c75ddd0014
:100d4000f907b200898075000800780000000600ed
:100d50000bf827008b00780000000500c70ade00b2
:100d6000f107b200f50fb20008003200e1cf4200f7
:100d7000020032000170a00024000500810f700005
:100d8000010032000408050044000500810f7000d6
:100d900002003a00140005008502e900000040004e
:100da00081c04800fcff3b000170a000240005004a
:100db0000004be00e9ff07000003be000405be00fa
:100dc0000200be00e5ff0700844f7500000006002a
:100dd0000200be006450e100050036006420e1001e
:100de000020036000968a30001003a000800be00b6
:100df0000160a0004f0678004f05be004f04be0002
:100e000000000600f0ff2f00f1ff2700f9ff370078
:100e1000889fbe008a9fbe008c1f7800e4ff0700f9
:100e2000ebff330003866c006450e10024003200c5
:100e30006420e100270032006150e100220032000e
:100e40006120e100210032008b854200eb07b100f8
:100e50000134b800003ab8000804420089844a000e
:100e6000013ab8000030b8008880400009014a000b
:100e70000400330000004000818048000201490066
:100e80008b05e900c909dd00830170000100320013
:100e900013002000c814de004814dd004709de00fe
:100ea0001200b200c808de000884700085ff070049
:100eb00001f0a1000cf0a70001f0a000cdff370069
:100ec0006120e100cfff32000801be000200be0039
:100ed000f7ff37006150e100fcff3a00c9ff37001f
:100ee000889fbe008a9fbe000082700004027100cd
:100ef00004827100260032000004be000200be0021
:100f00006011b8006b092000950220000182cf001b
:100f10000a0039000541b1000082cf000700390006
:100f20000541b1000982cf00040039000541b1003c
:100f30000882cf00010039000541b100054252008e
:100f4000120032000a003b008281710061016400de
:100f50008100d1000080d3008984d3000884d300ad
:100f60008b05e8000442e800f7ff3a00070037006d
:100f70000804440089844c00000048008180480037
:100f80008b05e9000442e900f9ff3a004dff070034
:100f90004f05be004f04be0000000600e687470074
:100fa0008e1f7800d0bf9f00e1bf9f000e0037006a
:100fb0005fba970014407800efb99700934078002b
:100fc0000201e900814f5000040032000080fb0064
:100fd0008180fb0001005000060037006687570043
:100fe000041fe800030fe8000200e000f0ff3a00f1
:100ff0000000eb004f0778006f00b1000000060012
:101000008001780002003700b15978000201e90040
:101010000200e000fcff3a000000060080017800ba
:1010200002003700815978000201e9000200e00067
:10103000fcff3a0000000600889fbe000004be00ce
:10104000050037000000fb00890078002a05070032
:10105000e10f400004003200384078000004e00056
:10106000f8ff3a000000eb004f04be00000006004d
:10107000881f7800e1362200efff070000047800a7
:10108000e1362200a00020001b05070008007800c0
:101090004f047800000006000c00fa00889fbe0094
:1010a00000047800f0ff2700d0bf9f008004eb0011
:1010b00099bf9f0088bf9f00a8bf9f00200c200001
:1010c000b0bf9f0078815700cfb097007080570065
:1010d000100007000fb89700094878008fb89700f4
:1010e000088050004f04be000080fa000000060097
:1010f000d0019000028151004240a9000300340059
:1011000010017800014978000208e8000100780029
:1011100000000600f6874700889fbe008a9fbe0039
:101120008c9fbe008e1f780000057800a1b79f003d
:10113000020778008004eb0090023700afb0970000
:101140008100e800a1b79f0051c2b300814f500059
:1011500003003a00afb097000004eb001100370025
:10116000ba0090000000fb000168a30007003200f5
:1011700009017800800078000a007800dcff070091
:101180000000e00005003a007c0237008a00780089
:10119000d9040700e10f4000780232008904e8001a
:1011a000760237000100780031417800d3c2b300e5
:1011b000834f51000c00320007003c00edc151008c
:1011c000834f51000a003200ebc14100834f5100b0
:1011d0000d003a000800370003c3b300834f5100ed
:1011e00009003a00060037000830a000edff370084
:1011f0000800a000ebff37000810a000e9ff37004f
:101200000820a000e7ff37000818a3000100320003
:101210000800a1000838a300010032000820a10046
:101220008200fb000103b100e98f50000c003e007a
:10123000000178008000eb006a08b900b201fb00f1
:101240000303b10080804100020078009201fb009e
:101250000303b100e98f5100f7ff360006003700a5
:101260008000eb00a3c2b300834f510002003a009c
:10127000ce0078000000e8008005eb00e2c2b30079
:10128000904f110009003a0008e0a00064415100ad
:10129000d04f1100030032000001780001027800f5
:1012a00006003700ce0578000000e8000001780055
:1012b000090037006a58b9008085410002007800b3
:1012c000b201fb000303b100e98f5100f9ff3600c2
:1012d00084007800f5ff370032407800a2b79f0005
:1012e000c3c6b300834f5000250032000f003c00fe
:1012f00032c6b300824f50008800320004003c0028
:101300000004e000220232006b4151000f00370060
:1013100042c6b300824f50001700320065414100c1
:10132000824f500094003a001300370032c7b300d8
:10133000824f50001b00320007003c006441510006
:10134000824f5000100032000241e800824f5000ee
:1013500089003a000f00370052c7b300824f500097
:101360008a00320063414100824f500082003a00ff
:10137000e0df9f0009003700e0df9f0085003700b5
:101380000840a000d4ff3700e0df9f000860a00005
:1013900080003700e0df9f000850a0000870a00028
:1013a0007c003700e0df9f004e00780000067800e8
:1013b0000000e00001003a00ac3022000c0178008f
:1013c0000000eb00010037000000e800e241780077
:1013d0000304e000fcff3a00800678000b00e00008
:1013e000030032008d8f5500010031008b0678001c
:1013f0008005eb008d8f5000010036008d85500078
:10140000680464002a003a00110037003a00900096
:101410000068a300070032000901780001022000e3
:101420000a00780032ff07000000e00006003a00e2
:10143000060037008a007800000220002e04070012
:10144000e10f4000010032008904e8008b05e9004b
:101450000b00e000edff3a008085eb001400370040
:101460003a0090000068a300090032000c007800e8
:10147000b000fb0000067800090178000a0078003f
:101480001bff07000000e00008003a0008003700da
:101490008c0078003100fb00010678008a0078009b
:1014a00015040700e10f4000010032008904e80044
:1014b0000d0078008006e9000000e000e8ff3a0037
:1014c0000800e000ad013200110037003a00900042
:1014d0000068a30007003200090178000102200023
:1014e0000a00780002ff07000000e00006003a0052
:1014f000060037008a00780000022000fe03070083
:10150000e10f4000010032008904e8008b05e9008a
:101510000b00e000edff3a00980137004e01780023
:10152000cf91de00c81ade004818dd004812de0048
:1015300004027000e4df9f000848a30008003200a6
:101540000404e00006003200e14f420004003200d3
:10155000f4df9f0082e79f002d002000020037008b
:10156000f2df9f001d002000e2fd2f000f0141006f
:101570000206e80099ff3700e0df9f00ecfd2f0036
:101580000f0646001d00200094ff3700e0df9f009b
:10159000080cb30008017800020cb200700064006f
:1015a0000200e0000d003a000000e00002003200fe
:1015b0004e06be00020037004e067800cfe6de0081
:1015c000e00f5600e08f5e000a003d003800b300d7
:1015d00060061600e0861e00060037000000e000ee
:1015e000020032004e06be00020037004e067800b0
:1015f0008006eb000b00e00005003a008c857600c9
:101600000bf0a7008b05ea008b05e900cf5dde003b
:1016100088017800030cb200e3b79f0000042000ab
:10162000808f51002300320003003c000300e000e3
:10163000080032002d003700000820006fb297002c
:10164000800f52000d003200000c2000800f52006d
:1016500026003a002231220010c0b300640141008c
:10166000b20f5600a28f5e001f0039000040e80054
:10167000ea4f5000f9ff3a001b00370010c0b300da
:101680000201200003002000820f5600838f5e00bd
:1016900015003900441add00cc11de008301720010
:1016a0004411dd000040e800e84f5000f6ff3a002a
:1016b0000d00370010c0b30082002000030020009e
:1016c000820f5600838f5e0007003900431add0049
:1016d000cd11de00830172004311dd000040e800ff
:1016e000eb4f5000f6ff3a00e0df9f006fd9970004
:1016f0000200fb008b0f500002003d00ebdf9f005b
:1017000003003700808f550001003d008005780000
:101710000100e000030032006300640001003200b9
:101720008100e90008e8a300050032008b8f50001b
:10173000020034008b805000010037008000eb0075
:10174000efd997000300fb000002eb00d4b79f0025
:10175000808f50000200340000805000d0b79f00fe
:101760000828a30040003200610164000818a300ab
:101770000f0032003a0090000068a300060032001b
:10178000b10220000200e000010032008180e80088
:10179000090178000d003700b00220000200e000cf
:1017a000010032000080e8008a0078000e00370057
:1017b0000200e000100032003a0090000068a30030
:1017c0000700320009017800010220000a007800b9
:1017d00047fe07000000e00006003a000600370060
:1017e0008a0078000002200043030700e10f400058
:1017f000010032008904e8005fb097000000e000bb
:101800005a003200bcb79f00cdb79f008006780019
:101810003a0090000068a300070032000901780038
:10182000010320000a00780031fe07000000e000fc
:1018300006003a00060037008a0078000003200006
:101840002d030700e10f4000010032008904e80089
:101850008d06e900eeff3a00ddb79f003fb6970026
:10186000cfb6970041003700dfb197000300e000da
:101870001a0032000838a30018003a00bcb79f00d5
:10188000cdb79f00830678003a0090000068a3005f
:101890000700320009017800010220000a007800e8
:1018a00013fe07000000e00006003a0006003700c3
:1018b0008a007800000220000f030700e10f4000bb
:1018c000010032008904e8008d06e900eeff3a00cd
:1018d000ddb79f003fb69700cfb697006101640067
:1018e0000818a3000f0032003a0090000068a3001f
:1018f00006003200b10220000200e00001003200c8
:101900008180e800090178000d003700b002200056
:101910000200e000010032000080e8008a00780048
:101920000e0037000200e000100032003a00900084
:101930000068a300070032000901780001022000be
:101940000a007800eafd07000000e00006003a0007
:10195000060037008a00780000022000e602070037
:10196000e10f4000010032008904e8000b03e900a8
:101970006330b90000017800b2b79f004233dd0048
:1019800020312200000343008e01780093b79f00ae
:1019900008077800060478005c0037008b05e90032
:1019a000000420006fb29700800f52003800320010
:1019b00003003c000400e000080032003e00370055
:1019c00000082000efb09700808f50002000320008
:1019d000000c2000808f500037003a000e48a30012
:1019e000100032001802be000401be000c00be0050
:1019f000f4b79f0085bf9f0092030700e0df9f00c0
:101a00000000fb00cf80de007fb297008fba970006
:101a10000401be009b0307000006560081865e009d
:101a20000700370018017800110009000286d8006d
:101a3000a2002000110009000280d800e1df9f0011
:101a40006fd997000243b000e2df9f001a00370011
:101a5000902f22000e58a30001003200802e220099
:101a600021312200810054000c01be008100e900f8
:101a7000030033008301d1000281d300fbff370054
:101a8000ef006100e0c07800e1df9f000a0037004e
:101a90000c00be00bfb197008301e90003003300d2
:101aa0008100d1000080d300fbff37006740600059
:101ab0000043b000e0df9f00ba0090006fda9700ab
:101ac0000400fb000168a300070032000901780050
:101ad000800078000a00780085fd07000000e00023
:101ae00005003a00050037008a00780082020700ee
:101af000e10f4000010032008904e8003fb0970088
:101b000063005000b0b79f00640454000b00e00075
:101b1000a2ff3a000e0478001fb797000838a30010
:101b200016003200dfb097000100e000130034001f
:101b3000010478003a0090000068a300070032001a
:101b400009017800010220000a00780068fd070002
:101b50000000e00006003a00060037008a00780026
:101b60000002200064020700e10f40000100320083
:101b70008904e8000804e900eeff3a002fb197005d
:101b800012407800e0df9f000004e0006bfd3a00a7
:101b9000090078004f0778004f06be004f05be00d1
:101ba0004f04be006f01b100000006000c00fa00f7
:101bb000a0bf9f00c0bf9f0092020700b0bf9f0060
:101bc000f0bf9f00100c2000d0bf9f007481570011
:101bd000efb097006c805700340007000080fa00d7
:101be00000000600881f780090208100c5010700d2
:101bf0000004780008007800f6fa07000000e00012
:101c0000f9ff3a00e10f4400030032009120810007
:101c100008007800810207004f04780000000600e9
:101c2000889fbe008a1f78000004780081447800f5
:101c30000205780000fd2f0008004000e90f500069
:101c400002003e0000047800100037000800780011
:101c5000e8fa07000000e000050032000a00e0009a
:101c60000300320008007800e8fa0700000478005a
:101c700008007800cdfa07008000780000c0eb0073
:101c80000100e000060032007805b1008984fb0005
:101c900000c0eb00890f540001003d0008407800af
:101ca0004f0578004f04be0000000600f087470093
:101cb000889fbe008a9fbe008c9fbe008e1f78004a
:101cc0000105780082047800902089000000eb0074
:101cd000c0b79f00e0b79f000044eb0060013700f1
:101ce0000a05e8000b86fb000c007800b9fa070033
:101cf0000000e00002003200baff07005501370083
:101d000050c2b30080cf550043013a008046eb003b
:101d100021c0b3000d4678000a0078000147780022
:101d2000040037004ec0b300010037002ec0b300de
:101d30000a007800ba45780091c6b30081cf5500fb
:101d4000a30032001c003e00e6c0500081cf5500c9
:101d50007700320011003e00f7c0500081cf5500df
:101d60002c00320006003e000b04e000bd003200f3
:101d7000a1c2b30081cf550082003a002300370092
:101d800081c5b30081cf55007e003a000e40780037
:101d9000b0ef9f00110020002500370041c6b300be
:101da00081cf55008a003200e4c0400081cf550049
:101db00074003a00ddff3700f1c6b30081cf550053
:101dc0008700320007003e00e3c0500081cf55007d
:101dd0001000320081c0e80081cf550069003a0050
:101de0001600370051c7b30081cf5500780032008c
:101df000e3c0400081cf55000a003200e5c050002a
:101e000081cf55005f003a001c0037000c46e80007
:101e1000c7ff3700e24f5700c2ff32008ec0b30049
:101e2000c3ff37000e407800b0ef9f008000eb004a
:101e3000c1b79f0000c1b3006c0037008e4078002e
:101e4000b1ef9f000c04e00069003a008984e900ca
:101e5000e4cf500005003a0019007800efb0970079
:101e60006109b9000288be006100370019007800de
:101e7000efb09700010878005d00370059ff0700b8
:101e80000c04e00002003a0049007800b0b79f005f
:101e9000902081001b01070080057800e18f45003c
:101ea000020032006fb79700140037000b00780073
:101eb000e20037000e07e8001a00fb00808f550093
:101ec00002003a000a05e800130037000c04e000a5
:101ed00003003a00bfb097008b587800b1b79f005d
:101ee000cfe8970001c046008e4f50000a00320034
:101ef0009020810003010700800578000b00e800b6
:101f0000e10f5000040036000b00780031fa0700a2
:101f10000000e000e7ff32000c04e000ce003a00d1
:101f20000844e8003fb097000c487800ca0037002a
:101f30000c04e00003003a000844e800c9007800ff
:101f4000b1b79f006fb79700bfb597009020810091
:101f5000ec000700e10f4000b80032000c04e00084
:101f600002003a000e07e800805d78008d46e90027
:101f70004240a900f5ff3c000b007800b0b79f007d
:101f8000b50037008b85fb0001fd2f008b804000e2
:101f9000e98f500009003e00bb0007008046780032
:101fa0008a007800010578003100fb000003b100d1
:101fb000e90f5000fbff36005dff370090208100e5
:101fc000d0000700808f550097003a00a10037002d
:101fd0008e407800b1ef9f00a0c0b300030037002f
:101fe0008e407800b1ef9f0080c0b300a0ef9f004b
:101ff000fcfe070090208100c200070080057800e9
:10200000efb097008100e800e1b79f000040eb00cf
:10201000d0e79f00d0022000808f550008003a00d2
:1020200090208100b700070080057800efb097008e
:102030008100e800e1b79f0010c0b300d0e79f0027
:102040004fb19700afe897000b007800f4fe07004f
:10205000e14f40000c003a00912081000b00780015
:102060006e0107000804e00080003a009020810023
:10207000b00090000000eb000148a3007c0032009b
:102080000080eb007a00370000032000808f5500ad
:1020900018003a00902081009a0007008107200074
:1020a000810f500004003a00cfb097000100e0001b
:1020b000070032000d00370081052000810f50001d
:1020c0000a003a00cfb097000100e000070032009c
:1020d000902081008b000700800578006fb097008a
:1020e0000080e800e0b79f000200370091208100e7
:1020f0004a0107006022b800c8e79f00090778007e
:102100000404be0001003700e3b79f00afe897006a
:102110000181fb008001eb000800be00d90107002f
:102120000004be004fb19700afe897000b007800a5
:10213000bbfe07000080fb008000eb0000044400b1
:1021400081844c006fb097008001e8008d46e90063
:102150000b00320090208100f3b79f006900070058
:10216000800578004fb19700afe897000b0078002a
:10217000abfe0700ffb19700e14f4000e2ff3a00dd
:102180000802be004fe497008e0478000307780031
:102190004fb19700afe897000b007800f4b79f00ad
:1021a00085bf9f009efe07007fb297008fba970001
:1021b000e14f400006003a00912081000b007800ba
:1021c000160107006fb797008fba97007fb297008c
:1021d000dfe097000104e00002003200600212001c
:1021e000e0821a000c04e0001b003a000844e800fa
:1021f0008984e9003fe89700e44f500003003a006b
:10220000190078000488be00130037001900780018
:102210000408780010003700902081003900070082
:10222000800f560008003200e10f4000030032002a
:1022300091208100f90007000c0037000804e0003d
:102240000a003a000a0037006fb097000007e80064
:10225000010037006fb797008e007800e1b79f004c
:102260009a4578000b04e0009dfe3a000880fb00d0
:102270004f0778004f06be004f05be004f04be005a
:102280000f01b10000000600800078000100780016
:102290003041780003c2b300834f5100faff32008f
:1022a000e94f5100f8ff3200edc14100834f51006a
:1022b00003003a008000780013c0b3000500370027
:1022c0008041eb00b4c2b300844f510001003a00da
:1022d000800078000000eb00020037006a02b900bd
:1022e000040041003101fb000203b100e90f51007d
:1022f000faff36000304e000010032000000ea00ab
:1023000000000600881f7800000478003800900064
:10231000f1006000e18f500005003a000098a30032
:1023200008003200980090000100e0000500320033
:10233000380090000040a000300498000080eb00be
:102340001f0037000090a100300498001800900092
:102350000000e000060034000000e90010049800ce
:10236000980078001180fb00010ce80005003700a0
:10237000380090000068a300edff3a0008007800e4
:1023800011000700b80090000178a3000c003a008b
:10239000fa0f500008003a00280090000000e0000a
:1023a000e3ff3200180090000000e80010049800dd
:1023b000180ce900deff3700ed0f5000e3ff32009c
:1023c0004f047800000006000200fa00889fbe005b
:1023d0008a1f7800000478000000eb0010049800c9
:1023e000b80090000080eb000108a3003e0032001e
:1023f000c04022001004e0000f0032006a382200c2
:10240000c9fd2f008a844400390090002010b200da
:1024100021102000810f500002003a0009007800ce
:102420009d000700ec8444008a8f5400f6ff3a00b8
:10243000c04022000048eb00580190000200e0007c
:102440000e003a001204980012002000e8805700a5
:1024500048009000f4f80700e10f500003003a0034
:102460008ff897000180fb001f00370038009000b4
:102470000040a0003004980013003700a80090002e
:1024800048009000e8f80700100498000000e00001
:1024900003003200e10f40000d003a000300370056
:1024a000380090000040a000020037003800900083
:1024b0000003b3003004980028009000000c78005e
:1024c0000000eb00100498000080eb0006003700cd
:1024d000a8009000010c78000000e90010049800aa
:1024e0001180fb00010ce8004f0578004f04be008e
:1024f0000080fa0000000600889fbe0001047800fa
:10250000b80090008084eb000118a3003a0032006c
:10251000180190000198a30002003a000200e000b8
:1025200035003a000190a000310498008004780042
:10253000f90fb2000200e00002003a00280090000b
:10254000000c7800ea8f540005003a000178a300df
:1025500003003a0088007800d0002000e6ff070062
:1025600018009000d8009000810f50000b0032003e
:102570000000e8001004980018007800094878006e
:10258000000ce80011c0b300c040220001487800f0
:10259000ea8f540018003a000500370088007800e0
:1025a00009407800660007008004780012003700b8
:1025b000380090000088a3000f003200180190003e
:1025c000a800900048009000dff8070098009000f5
:1025d000810f500004003200380090000003b30067
:1025e000300498008084eb000000eb001004980099
:1025f00028009000000c7800090078004f04be000d
:1026000000000600800078003104e000feff3a0080
:102610000080ea000080400000000600e10f40005a
:102620001c003200310190001220b200e10f510075
:1026300015003a00210290000400e0001200320070
:1026400011019000d1019000830f51001000320061
:1026500091017800848f510002003a008308e8005d
:10266000020037000201e800920098001101e90021
:1026700082087800b10090000168a30005003a00cc
:1026800000497800000006000080eb000000060012
:102690000080eb0000000600881f7800000478002e
:1026a000b8009000010078001020b200e10f500047
:1026b00005003a000000eb0010049800280090008c
:1026c000000c7800180037002120b2000000eb0059
:1026d00022202000828f500017003a00a8009000ae
:1026e0000100e00014003200180190000200e00038
:1026f000110032004800900093f807009800900005
:10270000810f500003003200380090000003b30036
:10271000300498000000eb0010049800280090009e
:10272000000c7800b80090000000eb000158a300f6
:10273000010032000080eb004f047800000006002a
:102740000200fa00889fbe00a0ff9f0001047800ed
:10275000380090000068a30033003a00e2006000f7
:1027600005003a000003b3003004980011049800fb
:102770000080eb002e003700d80490000900e00034
:1027800006003a0012002000e68057004800900042
:102790006df807001904980023003700a800900086
:1027a0000100e00008003a00f140220021049800f6
:1027b000010c7800210020005104980011049800b9
:1027c0000030a0003004980018019000a80090008c
:1027d000480090005cf80700280090008080eb0023
:1027e00011049800aff8970001487800000ce80049
:1027f0002ff89700ea4f50000b003a003800900085
:102800000088a3000800320018019000a800900082
:10281000480090004cf807000000eb0010049800fe
:10282000a8009000010c7800aff897000100fb00b1
:102830004f04be000080fa000000060000c0da006d
:10284000000006006022b800060220000000d00050
:102850008180d2000482d2008582d2000000a000d4
:102860000202520083825a00030031000202420039
:1028700083824a000000a1000603e900f3ff3a004a
:1028800000000600020ab900001bb9000200b800ef
:0c289000810042008100430000000600af
:020000040000fa
:10289c00636f00006d6d0000756e000069630000d1
:1028ac0061740000696f00006e54000068720000d3
:1028bc006561000064000000252a00005b5e0000da
:1028cc003031000032330000343500003637000060
:1028dc00383900005d250000642500002a5b0000eb
:1028ec005e30000031320000333400003536000019
:1028fc0037380000395d000025640000252a0000ef
:10290c005b5e0000303100003233000034350000d3
:10291c0036370000383900005d25000064250000c2
:10292c002a5b00005e3000003132000033340000be
:10293c003536000037380000395d00002564000092
:10294c00252a00005b5e00003031000032330000ad
:10295c003435000036370000383900005d250000a2
:10296c00640000003e250000642000002564000087
:10297c0020250000642000002564000020250000b4
:10298c00640a0000003e00002325000064200000c3
:10299c002564000020250000642000002564000050
:1029ac0020250000640a00000000000043680000bd
:1029bc00656300006b00000042650000666f00005c
:1029cc007220000046520000414d0000452e0000d0
:1029dc00000a0000416600007465000072200000cf
:1029ec0046520000414d0000452e00000000000042
:0c29fc00494400004c45000000000000b1
:020000040000fa
:102a0800111100002222000033330000444400006a
:102a1800555500006666000077770000888800003a
:102a280099990000aaaa0000bbbb0000cccc00000a
:102a3800dddd0000eeee0000cecd0000acab000006
:020000040000fa
:102a4800a5a50000a5a50000a5a50000a5a5000056
:102a5800a5a50000a5a50000a5a50000a5a5000046
:082a6800a5a50000a5a50000d2
:020000040000fa
:102a700012110000111100001311000014110000c8
:102a800015110000161100001711000018110000a8
:042a90001911000018
:020000040000fa
:102a940054080000001400000000000000080000ba
:102aa4000200000000000000020800000200000014
:102ab4000000000004080000020000000200000002
:102ac400ef00000006080000020000000000000003
:102ad4003a2300002800000000000000bc2300008e
:102ae4000a00000000000000c62300000a000000e5
:102af40000000000080800000200000000000000c0
:102b04000a0800000200000000000000d0230000ba
:102b14000a00000000000000da2300000a000000a0
:102b2400000000000c08000002000000000000008b
:102b34000e08000002000000000000001008000061
:102b44000200000000000000120800000200000063
:102b54000000000014080000020000000000000053
:102b64001608000002000000000000001808000021
:102b740002000000000000001a080000020000002b
:102b8400000000001c08000002000000000000001b
:102b94001e080000020000000000000020080000e1
:102ba4000200000000000000a82300001400000040
:102bb40000000000e42300000a0000000000000000
:102bc400ee2300000a0000000000000022080000bc
:102bd40002000000000000002408000002000000c1
:102be40000000000f82300000a00000000000000bc
:102bf4002608000002000000000000002808000071
:102c040002000000000000002a080000020000008a
:102c1400000000002c08000002000000000000007a
:102c24002e08000002000000000000003008000030
:102c34000200000002000000ffff000088230000e3
:102c44002000000000000000542000008400000068
:102c54000000000032080000020000000000000034
:102c640034080000020000000000000036080000e4
:102c7400020000000000000038080000020000000c
:102c8400000000003a0800000200000000000000fc
:102c94003c080000020000000200000001000000e7
:102ca400d820000084000000000000005c21000027
:102cb40084000000000000003e0800000200000044
:102cc40000000000400800000200000000000000b6
:102cd4004208000002000000000000004408000058
:102ce4000200000000000000541c0000000100006d
:102cf40000000000541d000000010000000000005e
:102d0400541e00000001000000000000541f0000d9
:102d1400000100000000000046080000020000005e
:102d2400000000004808000002000000000000004d
:102d34004a08000002000000000000004c080000e7
:102d440002000000000000004e0800000200000025
:102d54000000000050080000020000000000000015
:102d6400e021000084000000000000006422000054
:102d74008400000000000000022400000a0000009b
:102d840000000000520800000200000000000000e3
:102d94006223000026000000020000000d24000051
:102da400000d240009000000000200000f240000b0
:102db400000f24000e0201000000000000000000cb
:102dc4000000000006020200000000006223000070
:102dd4000c2400000600000000000000e8220000af
:102de400520000000200000030313200333435005c
:102df400363738003941420043444500460030002c
:102e040031323300343536003738390061626300bb
:102e14006465660000286e00756c6c002900000073
:102e240001000000000a000000006400000000002f
:102e3400e8030000001027000000a0008601000045
:102e440040420f000080960098000000e1f5050064
:102e540000ca9a003b000000122400000200000097
:102e64000000000014240000020000000200000022
:082e7400010000000000000055
:020000040000fa
:102e7c001600fa00200f98002e0890009040780061
:102e8c00215798002e5090000004e00013003a00e7
:102e9c00e0842000000f7800e08320006007980099
:102eac0040c521002007980040d52100100798004c
:102ebc008084200030079800608420004007980030
:102ecc002084200050079800800d22007007980085
:102edc00001e2200000f9800150037002e509000a5
:102eec00e14f500012003a0000852000000f7800de
:102efc00008420006007980040e52100200798001e
:102f0c0040f5210010079800c0842000300798007d
:102f1c00a0842000400798004084200050079800af
:102f2c00c01522007007980040262200000f980060
:102f3c006e00900010007800e10f50002900320064
:102f4c00e10f500003003900e20f50004d00320039
:102f5c005f0037009e0078007e009000a90d0700ee
:102f6c000004e000100032001e0078009040780051
:102f7c00e0c3b30080cf500007003a004e00900031
:102f8c008040eb00014878006e009000110020009a
:102f9c0001087800120037006e0090008000eb00f2
:102fac00010878000e0037005e0090001040780099
:102fbc00e14f500007003a006e0090002100200005
:102fcc00010878005e0090008040eb00014878001a
:102fdc00030037006e0090008000eb0001087800c1
:102fec003b0037009e0078007e009000850d0700a6
:102ffc000004e000140032001e00780090407800bd
:10300c00e0c3b30080cf500004003a004e009000a3
:10301c008040eb00014878000b0037004e00900018
:10302c00104078008080fb001e0190008100410060
:10303c001e01780012417800824878008040e80038
:10304c004e009000014878001e00780090407800f7
:10305c00c0c3b30080cf5000e2ff3a006e00900076
:10306c008000eb00010878004e00900010407800c2
:10307c002e519000804078001e009000d40607006e
:10308c00130037000e0890004b1207003e00900012
:10309c001040780000417800ae0090000e089000bf
:1030ac004c0e07000041eb008e0890002e50900053
:1030bc00c00b07003e0090008040eb0001487800f8
:1030cc006e0090008000eb0001087800000000000a
:0430dc0097ff370023
:020000040000fa
:1030e0001400fa0040079800520798006307980000
:1030f00071079800040f9800150f98001000200029
:10310000000f7800ce009000110798000000eb003f
:10311000200798000e0890000000e0000500320033
:103120001e00900090109000001090000e0990007a
:103130000089be001e009000406190006247980028
:103140001e00900021c0b300416098007e009000f6
:10315000e20f500017003200e20f500005003e0061
:103160000000e0002e003200e10f500006003200a7
:103170002c003700e30f500017003200e40f50001e
:103180001b003200270037001e0090000011900045
:10319000901190005e009000ee0090000000710021
:1031a000818071001e01900000119800111198009b
:1031b0001c0037001e00900090109000001090003e
:1031c00061004000e08048001e019000001198005e
:1031d00011119800130037001e0090005e0190004e
:1031e000ee01900002109800131098000d003700b7
:1031f0006e409000e24f5000060032001e0090002a
:103200005e019000ee0190000210980013109800eb
:10321000040037000000eb00000f780001003700c9
:10322000000000006e409000e14f50002d003a0079
:10323000004180000000e00016003a001e009000ef
:103240000080e800180d07001e009000b0089000f4
:1032500080408000808f5000030036001e009000e8
:1032600030089000804088001e0090000081e80037
:103270001e009000300890006a00b90080007800bd
:10328000a03322000080400082007800f30d070088
:10329000050037001e0090006c00400080007800a0
:1032a000003d2200ed0d07001e009000b0089000c8
:1032b0003040800030089000808f500009003600b8
:1032c0001e0890000000e000040032001e0890007c
:1032d00011002000010878000200370010002000d3
:1032e000b04088001e0078000080fa000000060050
:020000040000fa
:1032f0001000fa0030079800420798005307980022
:10330000610798007407980010002000000f7800f3
:10331000be00900011079800c91007007e009000c1
:103320000000e000050032001e00900090109000a8
:10333000001090007e0190000089be001e009000e9
:1033400040619000424798001e00900021c0b300e9
:10335000416098006e009000e20f500017003200ac
:10336000e20f500005003e000000e0002e00320099
:10337000e10f5000060032002c003700e30f500030
:1033800017003200e40f50001b0032002700370006
:103390001e00900000119000901190004e009000cf
:1033a000de00900000007100818071001e0190001d
:1033b00000119800111198001c0037001e009000a9
:1033c000901090000010900061004000e0804800e4
:1033d0001e01900000119800111198001300370091
:1033e0001e0090004e019000de0190000210980037
:1033f000131098000d0037004e409000e24f50002f
:10340000060032001e0090004e019000de01900088
:103410000210980013109800040037000000eb0021
:10342000000f780001003700000000004e409000bf
:10343000e14f50001e003a001e0090000080e8009e
:10344000990c07001e009000b0089000804080009a
:10345000808f5000030036001e009000300890005e
:10346000804088001e0090000081e8001e0090004f
:10347000300890006a00b90080007800a033220074
:103480000080400082007800740d07001e0090004c
:10349000b00890003040800030089000808f5000cd
:1034a00003003600b83202000000000000000000f7
:1034b000471007001e0078000080fa000000060098
:020000040000fa
:1034c0001200fa00500798006107980072079800f0
:1034d000030f98000000eb00000f7800de00900062
:1034e0001107980001003700000000005410070089
:1034f0001e009000e00890001e00900070089000f0
:10350000808f5000030039000e089000e20f500039
:103510001b003a000e099000ee0090001e00900083
:103520005b050700200798001e009000100890001f
:103530000000e000090032001e0090007200400010
:103540002a0907000000e0000a003200b832020039
:103550000000000000000000060037002e00900070
:103560000000e00003003200b8320200000000005a
:103570000000000016100700100020003d0037007a
:103580007e0090000000e00003003a0010100700e9
:103590000000eb00370037001e0078000000e0005c
:1035a00004003a0066004700a91007001000200040
:1035b000000f780006100700fc100700201007001d
:1035c0001e00900020609000e14f400003003a0090
:1035d0001e0090008040eb00216098001e009000cb
:1035e00030609000e14f400003003a001e00900060
:1035f0008040eb0031609800f50f0700ee004700b7
:1036000066004700c10807000000e00015003a000e
:103610001e0090004d0f07000000e0000d0032007a
:10362000fe0090001e009000680040001e10070081
:103630001e0090007d080700c00407000000e000a5
:10364000a9ff3a00b83202000000000000000000ac
:10365000a6ff37001e00900074080700b70407009b
:10366000a2ff37001e00900070080700b304070097
:0c3670000000eb000080fa0000000600e3
:020000040000fa
:10367c000a00fa000000eb00000f78000041800007
:10368c000000e0005e003a00704080000000e8009e
:10369c00100798009e009000714088001e0090005a
:1036ac000000e0000a003a00414080002107980029
:1036bc005040800040408800ae009000514088008f
:1036cc00c04080000000e800c0408800400f0700a8
:1036dc00e04080009e009000808f50003c0039003c
:1036ec00010037000000000040408000100078000e
:1036fc000000e00003003a000080eb00e04088008e
:10370c0033003700404080003000900030009000c3
:10371c00300798003e009000900090004107980000
:10372c009e0090004e009000808f500003003100ee
:10373c00ce009000e1408800250037003e0090004c
:10374c000080e800d50b07003e0090002008900098
:10375c000000e000030032003e0090006c004000ce
:10376c00ce0b07003e009000b00890008040800017
:10377c00808f5000030036003e009000300890000f
:10378c00804088003e0090000081e8003e009000e0
:10379c00300890006a00b90080007800a033220045
:1037ac000080400082007800a90c07003e009000c9
:1037bc00b00890003040800030089000808f50009e
:1037cc00c8ff390010002000000f7800c6ff37003a
:1037dc0030408000300890006a00b900800078000a
:1037ec00a03322000080400010007800e10f500050
:1037fc000600360010002000000f78000300370090
:10380c00a04080000000e800a0408800b04080008c
:10381c000000e0000200320010002000000f7800d1
:0c382c001e0078000080fa00000006007a
:020000040000fa
:103838001200fa006007980071079800020f9800bc
:103848000000eb00000f7800ee00900011079800d0
:1038580003003700000000000100370000000000ee
:10386800750f07001e009000e008900021079800df
:103878002e0090000000e000180032001e009000aa
:10388800b000900031079800fe0090001e009000e4
:10389800ec0b07001e009000be009000310098005d
:1038a8001e009000100890000000e00008003200a0
:1038b8001e009000720040004a0807000000e00067
:1038c80003003200b83202000000000000000000cf
:1038d8003d0f070010002000410037000e0890003f
:1038e8000000e00003003a00370f07000000eb007b
:1038f8003b0037001e0078000000e00004003a009a
:1039080068004700d00f070010002000000f780063
:103918002d0f070023100700470f07001e00900017
:1039280020609000e14f400003003a001e00900024
:103938008040eb00216098001e00900030609000ed
:10394800e14f400003003a001e0090008040eb0069
:10395800316098001c0f0700f0004700680047001e
:10396800e80707000000e00015003a001e0090007c
:10397800a90e07000000e0000d0032008e0890003c
:103988001e00900072004000450f07001e009000c6
:10399800a4070700e70307000000e000adff3a00b6
:1039a800b83202000000000000000000acff370041
:1039b8001e0090009b070700de030700a8ff3700e2
:1039c8001e00900097070700da0307001e0090000a
:1039d800910e07000000e000a0ff32000000eb009d
:0839e8000080fa000000060057
:020000040000fa
:1039f0000a00fa0020079800310798004207980053
:103a0000ae0090001107980011028000f0f12f0025
:103a1000008060000050a00010028800000000003c
:103a2000000000001e009000600890000000e00010
:103a300016003a004e0090000000e0000c0032003a
:103a40001e00900072004000800078004e00900040
:103a5000390b070011028000f0f12f000080600098
:103a60001002880000000000c0ff2f004b0037004c
:103a700011028000f0f12f00008060001002880029
:103a8000000000000000eb0044003700110280003d
:103a9000f0f12f000080600010028800000000009c
:103aa00011028000f0f12f00008060000050a000a3
:103ab0001002880000000000000000001e009000be
:103ac000600890000000e0002c0032001e00900012
:103ad000b00090001e009000001090008080400018
:103ae0001e009000310098001e009000b000900071
:103af0001e00900010009000808f500004003900dc
:103b00001e009000900078001e0090003100980088
:103b10001e009000600890008000e9001e009000e8
:103b2000610898001e009000801090001e00900018
:103b30003000900001017800800078003e00900085
:103b40002ff5070010002000000f78001e009000e5
:103b5000400090000000e0000a0032001e009000cb
:103b600068004000130c07000000e0000500320070
:103b7000b0ff2f00000f7800020037000000eb00bc
:103b8000000f780011028000f0f12f00008060002b
:103b900010028800000000001e0078000080fa007b
:043ba000000006001b
:020000040000fa
:103ba4001000fa0050079800610798007207980007
:103bb4000000eb00000f7800de0090001107980071
:103bc400030037000000000001003700000000007f
:103bd4009a0e07001e009000e0089000210798004c
:103be4002e0090000000e00016003200ee0090006d
:103bf4001e009000140b07002e0090008000e900c6
:103c04001e009000610898001e0090004000900083
:103c14000000e000080032001e0090006800400030
:103c2400710707000000e00003003200b832020010
:103c34000000000000000000640e070010002000d7
:103c4400410037007e0090000000e00003003a00cd
:103c54005e0e07000000eb003b0037001e007800fa
:103c64000000e00004003a0066004700f70e070079
:103c740010002000000f7800540e07004a0f0700c0
:103c84006e0e07001e00900020609000e14f40007f
:103c940003003a001e0090008040eb002160980071
:103ca4001e00900030609000e14f400003003a0095
:103cb4001e0090008040eb0031609800430e070026
:103cc400ee004700660047000f0707000000e00011
:103cd40015003a001e009000d00d07000000e0001f
:103ce4000d003200fe0090001e00900072004000a3
:103cf4006c0e07001e009000cb0607000e030700a1
:103d04000000e000afff3a00b832020000000000fb
:103d140000000000aeff37001e009000c20607003e
:103d240005030700aaff37001e009000be06070027
:103d3400010307001e009000b80d07000000e0001a
:103d4400a2ff32000000eb000080fa000000060031
:020000040000fa
:103d54000e00fa00889fbe008a9fbe008c1f780068
:103d640050079800414f98005e009000060009003b
:103d7400305f78007e00b1007000b1000040eb00bd
:103d8400704798000e007800df0c0700004f980081
:103d94004e4890000004e00028003a000e489000cd
:103da4000086fb007e4090008085fb001e00900092
:103db4004800de002e019000f10f20008100610018
:103dc400c808dd0001007000000478002e00900097
:103dd4004800de003e019000f10f200081006100e8
:103de400c808dd0001007000800478002e409000b7
:103df4000085fb001e007800940c07000080fb0087
:103e04008c1f78008b1f7800889fbe008a1f780063
:103e1400801f7800804b2900801f780040c5210056
:103e24009cf40700ee8757000040780048e8b7008c
:103e340010c0b30042e8b7002a0037004e48900093
:103e4400e14f500027003a000e4890000086fb0026
:103e54007e4090008085fb001e0090004800de003c
:103e64002e019000f10f200081006100c808dd00e0
:103e740001007000000478002e0090004800de006d
:103e84003e019000f10f200081006100c808dd00b0
:103e940001007000800478002e4090000085fb0033
:103ea4001e007800690c07000080fb008c1f78005e
:103eb4008b1f7800889fbe008a1f7800801f7800bf
:103ec400904c2900801f780040e5210071f4070020
:103ed400ee875700004078004ce8b70010c0b300ec
:103ee40044e8b7004f0678004f05be004f04be00fb
:083ef4000080fa000000060046
:020000040000fa
:103efc000e00fa0050079800610798000000eb00d4
:103f0c00000f7800de0090001107980003003700c6
:103f1c00000000000100370000000000c50d070084
:103f2c001e009000e0089000210798002e009000e1
:103f3c000000e000130032002e0090008000e90029
:103f4c001e009000610898001e0090004000900038
:103f5c000000e000080032001e00900068004000e5
:103f6c009f0607000000e00003003200b832020098
:103f7c000000000000000000920d0700100020005f
:103f8c00410037006e0090000000e00003003a0092
:103f9c008c0d07000000eb003b0037001e00780082
:103fac000000e00004003a0066004700250e070000
:103fbc0010002000000f7800820d0700780e07001b
:103fcc009c0d07001e00900020609000e14f400007
:103fdc0003003a001e0090008040eb002160980026
:103fec001e00900030609000e14f400003003a004a
:103ffc001e0090008040eb0031609800710d0700ae
:10400c00ec004700660047003d0607000000e0009a
:10401c0015003a001e009000fe0c07000000e000a6
:10402c000d003200ee0090001e0090007200400067
:10403c009a0d07001e009000f90507003c020700ce
:10404c000000e000b2ff3a00b832020000000000ad
:10405c0000000000b1ff37001e009000f0050700c3
:10406c0033020700adff37001e009000ec0507007f
:10407c002f0207001e009000e60c07000000e00075
:10408c00a5ff32000000eb000080fa0000000600e3
:020000040000fa
:10409c000c00fa0040079800510798000000eb0054
:1040ac00000f78005e009000e30f50000200360015
:1040bc0030002000500798005e0d07004e00900065
:1040cc000000e00002003a003040800001003700a0
:1040dc004e009000100798001e009000b008900051
:1040ec0021079800ae0090005e009000808f500079
:1040fc0048003200de0090002e009000808f5000af
:10410c000c003600304080009e009000808f5000e4
:10411c000e00320030408000b00890005e0090002d
:10412c00808f500009003e0010002000000f780026
:10413c0006003700304080009e009000808f5000b9
:10414c0002003a0010002000000f78001e009000c2
:10415c00b0089000310798001e009000de0090001f
:10416c00310898001e009000600090000000e000f4
:10417c00040035005e009000e40010001e0090006a
:10418c00610098001e009000500190003e009000cd
:10419c006a00b90080007800a03322000080400043
:1041ac00800f510015003a001e0090000080e800be
:1041bc003a0907001e009000b00890008040800073
:1041cc00808f5000030036001e00900030089000d5
:1041dc00804088001e0090000081e8001e009000c6
:1041ec00300890006a00b90080007800a0332200eb
:1041fc000080400082007800150a07001e0078003d
:10420c000000e00003003200b832020000000000a1
:10421c0000000000eb0c07000080fa000000060014
:020000040000fa
:10422c001400fa0020079800310798004207980004
:10423c00530798006407980075079800060f9800bc
:10424c00170f98004e00900000004000800078008e
:10425c001e0890004008900001017800510a2000cf
:10426c006bf307001e089000c0089000110798001f
:10427c001e089000c00890004e019000f0ff27002f
:10428c000000410000004000808040001e089000ab
:10429c00710898000000eb00000f78000d0037004b
:1042ac003e0090001e004000904078001e089000d8
:1042bc001e0040007a004000014878003e0090004b
:1042cc001e004000104078000004e00005003200a1
:1042dc001e0fe8001e007800e30f5000f0ff3600c0
:1042ec0001003700000000001e0890008040eb0029
:1042fc00515898007e009000e30f500002003600e9
:10430c0030002000700798001e089000fe009000fe
:10431c00310898001e0890000080e800850d070009
:10432c001e0890006c004000820d07001e089000d3
:10433c009e089000410098007e009000e400100060
:10434c001e089000610098001e0890009e089000c6
:10435c00110898001e0990006000b8000011980028
:10436c00111198001e0890008040eb0041609800ed
:10437c006e019000ae0090001e009000af0207008e
:10438c00800078001e089000010878000e0890004c
:10439c000000e000030032000e0890009e08900020
:0c43ac00010878000080fa000000060004
:020000040000fa
:1043b8000e00fa00100798002107980032079800ad
:1043c8004307980054079800650798009a0c07005f
:1043d8003040800040609000e24f500022003200e0
:1043e8003440800004119000941190001e00900049
:1043f800ae0090000080ea008180ea008202780026
:10440800030178008001780001007800838262004f
:10441800000061008000eb00c000dd00000020000b
:104428000001be006128b80000017100818171009f
:1044380002129800131298003040800011c0b30097
:10444800416098006e0090000000e0000600320015
:10445800110020006e00900066070700b8320200c5
:104468000000000000000000570c0700720c070055
:104478005e0090000000e00005003200304080003f
:1044880090109000001090005e0190000089be001e
:104498003040800040609000e24f5000030032003e
:1044a8000000eb00000f780018003700344080004f
:1044b80004119000941190003e009000ce009000ee
:1044c8000080ea008180ea00820278000301780017
:1044d800800178000100780083826200000061009a
:1044e8008000eb00c000dd00000020000001be00dd
:1044f8006128b800000171008181710002129800e2
:104508001312980010002000000f7800304080003f
:104518008040eb00416098002b0c07001e007800db
:084528000080fa00000006000b
:020000040000fa
:104530000800fa0010079800210798003207980039
:104540000041eb00110020003e0090009d08070094
:10455000904188000041eb00110020003e009000d7
:1045600098080700a04188003062a9003002a90025
:104570008111800090ff2f00008060008011880072
:104580003082a90030a2a90030c2a90030e2a900ff
:1045900081118000f0cf2f00008060008011880022
:1045a0003182a90031a2a90031e2a8001e009000ca
:1045b000ae009000c1f107000200200003182400a3
:1045c00013f207000001be000040220041b72400a2
:1045d0005df107000200200003f02300fcf007005b
:1045e0009bf1070000007800c01188009111800045
:1045f000f0f32f0000806000901188003342a80083
:1046000033c2a90033a2a90033e2a900110280003d
:10461000f0f12f00008060000050a0001002880020
:10462000000000000000000087c0a90087e0a9008a
:1046300091058000f08f2f00008060000080a000b6
:104640009005880091058000f0ff28000080600040
:1046500000c0a0009005880097e0a80097c0a800bf
:1046600002003700b0118000004f780090118000e8
:10467000610060000000e000faff3a001000200036
:10468000b04188000000eb000080fa000000060046
:020000040000fa
:104690000400fa00920c0700614180000100500004
:1046a0007041880049003700504180000000e80058
:1046b00050418800704180000000e900704188008e
:1046c000504180000000e00039003a0011418000b4
:1046d000010f780020418000104188009e00780082
:1046e00021418800330037001041800030009000e5
:1046f00030009000100798001e009000900090007d
:1047000050418000808f50002f003e001102800039
:10471000f0f12f00008060000050a000100288001f
:1047200000000000000000001e0090000080e80073
:10473000dd0707001e009000200890000000e00048
:10474000030032001e0090006c004000d6070700f6
:1047500011028000f0f12f0000806000100288003c
:10476000000000001e009000b00890004041800052
:10477000808f5000030036001e009000300890002b
:10478000404188001e0090000081e8001e0090005b
:10479000300890006a00b90080007800803a22005a
:1047a0000080400082007800ac080700010037005c
:1047b0000000000010418000100078000000e000c0
:1047c000c9ff3a000100370000000000704180007e
:1047d0000000e000b4ff3a005041800060418800d2
:0847e0000080fa000000060051
:020000040000fa
:1047e8000a00fa002007980031079800420798004d
:1047f800ae0090001107980011028000f0f12f0020
:10480800008060000050a000100288000000000036
:10481800000000001e009000ca0a07000000e00027
:10482800160032004e0090000000e0000c0032003c
:104838001e00900068004000800078004e00900044
:10484800bb07070011028000f0f12f000080600014
:104858001002880000000000c0ff2f00330037005e
:1048680011028000f0f12f00008060001002880023
:10487800000000000000eb002c003700110280004f
:10488800f0f12f0000806000100288000000000096
:1048980011028000f0f12f00008060000050a0009d
:1048a8001002880000000000000000001e009000b8
:1048b800e00890001e00900070089000808f500063
:1048c800120031000001eb00be0090001e009000b5
:1048d8006d00070010002000000f78001e009000f7
:1048e800100890000000e0000a0032001e0090004e
:1048f80072004000ad0807000000e000050032002b
:10490800b0ff2f00000f7800020037000000eb0016
:10491800000f780011028000f0f12f000080600085
:1049280010028800000000001e0078000080fa00d5
:044938000000060075
:020000040000fa
:10493c000600fa000000eb00000f78000000eb000e
:10494c00100798003b0b0700004180000000e900b5
:10495c0000418800004180000000e00045003a0062
:10496c00604080000000e00042003200210037006f
:10497c00b01e810030009000000f78009e0078007f
:10498c006c804000450707001e80e80043070700c5
:10499c001e007800b008900080408000808f50008e
:1049ac00030036001e00780030089000804088001c
:1049bc001e81e8001e007800300890006a00b900e3
:1049cc0080007800a0332200008040008200780034
:1049dc001f0807001e007800b008900030408000cf
:1049ec0030089000808f5000020039001000200029
:1049fc00b0408800801e81000000e000dcff3a001f
:104a0c001e0078000000e00001003200700a070070
:104a1c00a1408000210798002e0090000000e000cb
:104a2c000c00320012fb07000000e0000200320014
:104a3c0010002000b04088002e0090000000e9001b
:104a4c00200798002e0090000000e000f5ff3a00cf
:104a5c001428ef00b04080000000e0000500320098
:104a6c001000200010079800b8320200000000006f
:104a7c0000000000d30a07001e0090000080fa001e
:044a8c000000060020
:020000040000fa
:104a90000a00fa00200798003107980042079800a2
:104aa0000000eb00100798002e009000e008900036
:104ab000010f78002e009000001090000000e00030
:104ac000400032004e0090000000e00019003a0063
:104ad0002e009000801090002e009000200090008a
:104ae00001017800be00900045f107002e00900003
:104af000a00090002e0090000010900080804000e8
:104b00002e009000210098002e009000a000900040
:104b10002e00900010009000808f50002900390076
:104b20002e009000900078002e0090002100980048
:104b3000240037002e009000801090002e0090007e
:104b40003000900001017800be0090002cf10700b9
:104b50002e009000b00090002e00900000109000f9
:104b60000000ea00808040002e0090003100980094
:104b70002e009000b00090002e00900010007800f1
:104b8000808f5000080031002e00900090009000af
:104b90002e009000001090000000ea00808040008d
:104ba0002e009000310098004e009000e20f50005f
:104bb00004003a001e0078000000e000010032000e
:104bc0001e0fe9009e00e8002e009000610898008a
:0c4bd0001e0090000080fa0000000600ab
:020000040000fa
:104bdc001000fa0060079800614f9800724f98001f
:104bec006e009000ea004700811f7800e800470043
:104bfc00811f7800e4004700811f7800e600470021
:104c0c00811f78008e80e800811f780021462900e2
:104c1c00811f7800e2f30700ec8757001e0090001c
:104c2c008000400080532900008040001000780074
:104c3c00102089003e009000804078004040220007
:104c4c00014878002e009000cf80de00f20f20008b
:104c5c00020160004811dd0024208100f30f2000c8
:104c6c00830162000301710022208900c801de006b
:104c7c00f20f2000028161003420810003f02f002c
:104c8c00830162000301710032208900f20f2000c1
:104c9c00028160004811dd0034208100f30f2000f8
:104cac00830162000301710032208900c808de0014
:104cbc00f00f2000008060004220810001f02f00e6
:104ccc008100610001007000402089004e009000be
:104cdc008040780090402200014878005e009000ef
:104cec0080407800a040220001487800204022003b
:104cfc00000f780092428000fe4890001e00780061
:104d0c00020001000040eb000080fa0000000600e9
:020000040000fa
:104d1c000a00fa0020079800310798004207980013
:104d2c00c001200060050700100798001e009000cd
:104d3c000000e0003c003200304180000000e00048
:104d4c0003003a009e009000314188007108070072
:104d5c003e009000e10f50000200360010002000d1
:104d6c00300798001e0090008000eb00510898005e
:104d7c001e009000be009000310898001e009000ac
:104d8c00ce009000410898001e009000ae009000ec
:104d9c00010878001e0090000080e800e50a07007a
:104dac001e0090006c004000e20a07001e009000fc
:104dbc009e009000410098001e0090009e00900004
:104dcc00110898003e009000e20010001e009000b8
:104ddc00610098001e009000b008900040418000d7
:104dec00808f5000030036001e00900030089000a9
:104dfc00404188001e0090000081e8001e009000d9
:104e0c00300890006a00b90080007800803a2200d7
:104e1c0000804000820078000d0707001000200081
:104e2c00000f7800020037000080eb00000f7800c4
:0c4e3c001e0078000080fa000000060054
:020000040000fa
:104e48002a00fa0020179800311798004217980096
:104e5800e4004700425029000f000900b21878000a
:104e6800be109000110798002e1090001e019000af
:104e7800020878002e1090000080e80020179800a3
:104e88002e1090008000eb00010878002e10900092
:104e98000080e800201798002e1090008000eb009a
:104ea800010878002e1090000080e8002017980074
:104eb800ce1090002e109000010878002e1090005f
:104ec8000080e800201798000000eb00000f780031
:104ed8000a0037001e00780000004000000047006c
:104ee800a00090002e109000010878002e1090006d
:104ef8000080e800201798001e0fe8001e007800c8
:104f0800ef0f5000f3ff3600210280002e109000b2
:104f1800010878002e1090000080e8002017980003
:104f280034c0bf008080fb002e109000010878007c
:104f38002e1090000080e800201798002e10900096
:104f48008000eb00010878002e1090000080e80037
:104f5800201798002e1090000080fa00000006002c
:020000040000fa
:104f68000a00fa003007980041079800be00900038
:104f7800010f78000000eb00100798001e00780071
:104f8800c0609000414798001e00780021c0b3001f
:104f9800416098001e00780090109000001090006a
:104fa80061004000e08048001e0178000011980070
:104fb800111198004e409000e14f50002b003a002c
:104fc800004180000000e00014003a001e80e80064
:104fd800b30507001e007800b008900080408000ec
:104fe800808f5000030036001e00780030089000c3
:104ff800804088001e81e8001e007800300890007c
:105008006a00b90080007800a033220000804000c8
:10501800820078008f060700050037009e007800a0
:105028006c80400080007800003d2200890607005f
:105038001e007800b00890003040800030089000d2
:10504800808f5000090036004e0090000000e000fc
:10505800040032004e009000110020000108780082
:105068000200370010002000b04088000080fa00dd
:04507800000006002e
:020000040000fa
:10507c000600fa0010079800210798009e00900087
:10508c00010f78006b0907001e00780010017800f2
:10509c001e007800f00890001e00780000109000b0
:1050ac000088b90000007800800041001e007800e4
:1050bc00110098001e0078008000eb006108980039
:1050cc001e007800900078001e00780021009800e7
:1050dc001e007800100178001e0078007008900007
:1050ec008000e9001e007800001090000088b900d4
:1050fc0000007800800041001e007800310098000c
:10510c001e00780080c0eb00216098001e00780023
:10511c0080c0eb00316098002e0090000000e00091
:10512c000d003a001e007800400090000000e000e6
:10513c000f0032009e0078006880400028020700b3
:10514c000000e0000a003200b8320200000000004b
:10515c0000000000060037009e00780068804000c8
:10516c00860707009e0078007280400083070700c6
:10517c0014090700100020000080fa00000006004f
:020000040000fa
:10518c000600fa00004180000000e000030032003d
:10519c0010002000b0408800390037001628ef00be
:1051ac003040800070089000100798001e0090009e
:1051bc007400500010079800420120004152290051
:1051cc001e00900072ef07000000e00004003200a7
:1051dc0030408000fa004000304080008409070015
:1051ec0081408000010f7800010037001e0fe9009c
:1051fc001e0078006a00b90080007800a0332200fd
:10520c0000804000100078000000e000f7ff320042
:10521c001e0078006a00b90080007800a0332200dc
:10522c0000804000200798002e0090001000900095
:10523c00900090002e009000110098002e0090001d
:10524c00900090002e00900064004000808f500071
:10525c0005003a002e009000100090009000900085
:10526c002e009000110098002e009000100090006d
:10527c0030009000304088009e007800814088000b
:08528c000080fa00000006009a
:020000040000fa
:105294000a00fa0020079800310798004207980096
:1052a400ae009000110798001e0090006008900066
:1052b4000000e000310032001e009000b0009000b9
:1052c4001e00900000109000808040001e0090009e
:1052d400310098001e009000b00090001e00900065
:1052e40010009000808f5000040039001e009000d0
:1052f400900078001e009000310098001e0090007d
:10530400600890008000e9001e0090006108980089
:105314001e009000801090001e009000300090004d
:1053240001017800800078003e00900033ef070010
:105334004e009000100078000000e0000c003a00dd
:105344001e009000400090000000e00008003200c1
:105354001e00900068004000150607000000e000f1
:10536400030032004e009000110020000108780074
:1053740010002000000f7800020037000000eb004e
:10538400000f78001e0078000080fa00000006007c
:020000040000fa
:105394000200fa00000f7800a808070060408000af
:1053a4000000e80060408800304080000000e00019
:1053b40007003a009e007800314088006040800079
:1053c400e10f50000d003a00dd0507000b00370027
:1053d400904080000000e00008003a003040800067
:1053e400b00890001e00780030089000808f5000b4
:1053f40002003e009e00780031408800d0408000ca
:105404000000e800d04088001e007800b00890003a
:1054140080408000808f5000030036001e0078001a
:1054240030089000804088001e81e8001e0078004b
:10543400300890006a00b90080007800a033220090
:105444000080400082007800830507005f080700a1
:10545400904080000000e0000900320030408000ed
:10546400b00890001e00780030089000808f500033
:1054740003003100b8320200000000000000000008
:085484000080fa0000000600a0
:020000040000fa
:10548c000c00fa0040079800510798000000eb0050
:10549c00000f780042090700714080001107980046
:1054ac004e009000900078005e009000008040005c
:1054bc00200798004e009000900078001e0090008d
:1054cc00808f50000c0036004e0090009000780049
:1054dc002e009000808f500012003600ae0090001d
:1054ec001e009000808f50000e003600100020002f
:1054fc00000f78000b0037004e00900090007800f1
:10550c002e009000808f500004003e00ae009000f2
:10551c001e009000808f500002003600100020000a
:10552c00000f78004e009000ae009000010878004b
:10553c001e0078000000e00005003200ae00900074
:10554c001e009000008050008000eb002803070034
:10555c00f7fc0700300798003e0090000000e000c8
:10556c0003003a00b8320200000000000000000006
:08557c000080fa0000000600a7
:020000040000fa
:105584001000fa004007980051079800620798003d
